:020000040800F2
:1000000020070020890100082F110008CF0F0008E9
:100010002D1100088F020008D31200080000000014
:100020000000000000000000000000003311000884
:10003000910200080000000031110008351100088D
:10004000A3010008A3010008A3010008A301000800
:10005000A3010008A3010008A3010008A3010008F0
:10006000A3010008A3010008A3010008A3010008E0
:10007000A3010008A3010008A3010008A3010008D0
:10008000A3010008A3010008A3010008A3010008C0
:10009000A3010008A3010008A3010008A3010008B0
:1000A000A3010008A3010008A3010008A3010008A0
:1000B000A301000899110008A5110008A301000878
:1000C000A3010008A3010008A3010008A301000880
:1000D000A3010008A3010008A3010008A301000870
:1000E000A3010008A3010008A301000800F002F822
:1000F00000F03AF80AA090E8000C82448344AAF188
:100100000107DA4501D100F02FF8AFF2090EBAE885
:100110000F0013F0010F18BFFB1A43F0010318473B
:10012000CC150000EC150000103A24BF78C878C147
:10013000FAD8520724BF30C830C144BF04680C60ED
:10014000704700000023002400250026103A28BF35
:1001500078C1FBD8520728BF30C148BF0B60704739
:100160001FB51FBD10B510BD00F058F81146FFF7C0
:10017000F7FF01F0BFF800F076F803B4FFF7F2FFE5
:1001800003BC00F07DF8000009488047094800479B
:10019000FEE7FEE7FEE7FEE7FEE7FEE7FEE7FEE737
:1001A000FEE7FEE704480549054A064B7047000094
:1001B00097110008ED000008200100202007002012
:1001C00020030020200300204FF0000200B513465A
:1001D00094469646203922BFA0E80C50A0E80C5067
:1001E000B1F12001BFF4F7AF090728BFA0E80C5018
:1001F00048BF0CC05DF804EB890028BF40F8042B11
:1002000008BF704748BF20F8022B11F0804F18BF7D
:1002100000F8012B7047704770477047754600F033
:100220002BF8AE4605006946534620F00700854688
:1002300018B020B5FFF7B6FFBDE820404FF000062C
:100240004FF000074FF000084FF0000B21F00701BE
:10025000AC46ACE8C009ACE8C009ACE8C009ACE801
:10026000C0098D46704710B50446AFF300802046A4
:10027000BDE81040FFF781BF00487047BC00002078
:1002800001491820ABBEFEE7260002007047FEE7DA
:10029000704700002DE9F84FDFF8B8910024A9F16C
:1002A000040B23460F2709F1040AABF1040EC9E041
:1002B0000125A5402A40AA427DD1674ED1F804C04D
:1002C000ACEB0608B44532D014DCBCF1030F3AD0D5
:1002D00009DCBCF1000F2AD0BCF1010F1CD0BCF12D
:1002E000020F31D11DE0BCF1110F17D0BCF1120F7C
:1002F0002AD119E0B8F5881F19D006DCB8F5803F7F
:1003000015D0B8F5801F1FD111E0B8F5001F0ED031
:10031000B8F5041F18D10AE0CB6815E0CB681B1DA7
:1003200012E0CB6808330FE0CB680C330CE08B682D
:100330002BB1012B4FF0080303D0456104E00423E7
:1003400002E0056100E00023FF2A01D8064601E033
:1003500000F104064FEA840501D9A5F12005D6F87D
:10036000008007FA05FC28EA0C0803FA05F548EABC
:100370000508C6F800804D68ED0062D5374DAE69BE
:1003800046F00106AE61AD6924F0030605F00105F3
:100390000095334D06EB050CDCF80850A607360F28
:1003A00007FA06F825EA0805DFF8B880404503D1CA
:1003B0004FF0000817E044E0DFF8AC80404502D180
:1003C0004FF001080FE0DFF8A480404502D14FF064
:1003D000020808E0DFF89880404502D14FF003089A
:1003E00001E04FF0040808FA06F848EA0508CCF8DE
:1003F00008804D68D9F80060ED024D4601D51643DE
:1004000000E096432E604D68DAF80060AD02554674
:1004100001D5164300E096432E604D68DBF800607E
:10042000AD035D4601D5164300E096432E604D684E
:10043000DEF80060ED03754601D5164300E09643F3
:100440002E60641C0D682A46E5407FF431AFBDE89C
:10045000F88F000008040140000011100010024055
:100460000000014000080140000C01400010014064
:10047000001401400AB1016170470904FBE7000064
:1004800001488068704700001C0000200248816815
:1004900002781144816070471C000020074810B5A5
:1004A000016841F010010160032000F075F80F2091
:1004B00000F006F800F024F8002010BD00200240F3
:1004C00070B50D4D04464FF47A712878B1FBF0F009
:1004D0000A490968B1FBF0F000F0BCFA48B9102CE9
:1004E00007D200222146501E00F036F800206C6032
:1004F00070BD012070BD00001C00002028000020FD
:100500000C4808B5816941F001018161816901F000
:1005100001010091C16941F08051C161C06900F0E1
:10052000805000900448416821F0E06141F0806112
:10053000416008BD0010024000000140002809DBB6
:1005400000F01F02012191404009800000F1E020ED
:10055000C0F8001170470000F0B40E4B1B680C4649
:10056000C3F30223C3F10705042D00D90425191D87
:10057000072901D2002300E0DB1E012606FA05F15F
:10058000491E214099409E40761E16403143F0BCE2
:1005900000F0A0BE0CED00E0064900F0070208687C
:1005A0004FF6FF03184040EA0220034A1043086058
:1005B000704700000CED00E00000FA052DE9F0475F
:1005C0000F46050061D0434E306800F00700B84286
:1005D00009D2306820F0070038433060306800F0FE
:1005E0000700B84251D128683B4C810712D540071B
:1005F00003D5606840F4E06060602878000703D5A8
:10060000606840F4605060606068A96820F0F000A5
:10061000084360602878C00728D06868012810D097
:100620002168022810D0890700292EDA616821F09C
:10063000030101436160FFF723FF804641F28839DF
:100640000DE021688903EFE78901EDE7FFF718FF67
:10065000A0EB0801494502D90320BDE8F087606896
:10066000696800F00C00B0EB810FEFD1306800F04A
:100670000700B8420BD9306820F0070038433060DB
:10068000306800F00700B84201D00120E5E7287883
:10069000400705D56068E96820F4E06008436060C1
:1006A0002878000706D56068296920F4605040EA80
:1006B000C100606000F018F86168084AC1F30311D6
:1006C000515CC8400649086006480068FFF7F8FE1C
:1006D0000020C2E70020024000100240DA160008A5
:1006E00028000020200000200E4A51680E4801F02A
:1006F0000C03042B11D0082B0FD10C48C1F38343FA
:10070000C903C05C0AD55168084AC1F34041921E32
:10071000515C054A5043B0FBF1F07047044948432F
:10072000704700000010024000127A00CA1600084C
:1007300000093D002DE9F84F040070D02078C04D2D
:10074000C00749D06868C0F38100012807D06868F5
:10075000C0F38100022809D16868C00306D5286863
:10076000800339D560680028E7D035E06068B0F5CF
:10077000803F0BD010B1B0F5A02F11D0286820F425
:1007800080302860286820F4802002E0286840F447
:1007900080302860606890B1FFF772FE06460AE07C
:1007A000286840F480202860F0E700BFFFF768FE6B
:1007B000801B642873D828688003F7D50CE0FFF706
:1007C0005FFE064605E000BFFFF75AFE801B642867
:1007D000F0D828688003F7D420789A4E80074FF02D
:1007E00001094FF0000839D5686810F00C0F07D0E8
:1007F0006868C0F38100022809D16868C00306D484
:100800002868800714D52069012808D110E02069E4
:10081000B0B1C6F80090FFF733FE074605E00AE1E5
:10082000FFF72EFEC01B0228C4D828688007F7D522
:100830002868616920F0F80040EAC10028600DE0F6
:10084000C6F80080FFF71CFE074604E0FFF718FE1D
:10085000C01B022823D828688007F7D42078000717
:100860002CD57948A169D9B1C0F80090FFF708FEEE
:10087000074604E0FFF704FEC01B02280FD8686A91
:100880008007F7D571484FF4FA510068B0FBF1F0DA
:10089000009000BF0098411E0091FAD20EE080E067
:1008A000C0F80080FFF7ECFD074604E0FFF7E8FD25
:1008B000C01B022875D8686A8007F7D420784007E3
:1008C00060D5E8690027C00008D4E86940F080508E
:1008D000E861E869012700F0805000905C480168F9
:1008E000C90513D40168834641F480710160FFF7A4
:1008F000C7FD824606E000BFFFF7C2FDA0EB0A007D
:1009000064284ED8DBF80000C005F5D5E068012862
:100910000AD008B1052813D0286A20F00100286207
:10092000286A20F0040002E0286A40F001002862F2
:10093000E06841F2883B98B1FFF7A2FD82460BE0E8
:10094000286A40F004002862EEE700BFFFF798FD38
:10095000A0EB0A0159455AD8286A8007F6D50CE061
:10096000FFF78EFD824605E0FFF78AFDA0EB0A0146
:1009700059454CD8286A8007F6D41FB1E86920F0A1
:100980008050E861E06988B36968C1F38101022998
:1009900044D00228C6F8608004D0FFF771FD0446F9
:1009A00038E034E0FFF76CFD074604E0FFF768FD30
:1009B000C01B02282BD828688001F7D4206AB0F524
:1009C000803F05D16868A16820F400300843686062
:1009D000D4E908010843696821F474110843686088
:1009E000C6F86090FFF74CFD044606E025E000BF26
:1009F000FFF746FD001B022809D828688001F7D5BB
:100A00001BE000BFFFF73CFD001B022802D90320BA
:100A1000BDE8F88F28688001F4D40EE00128F7D0F3
:100A20006868226A00F48031914204D1616A00F45E
:100A30007010884201D00120EAE70020E8E70000BA
:100A40000010024000004242800442422800002080
:100A50000070004010B5401EB0F1807F01D301202E
:100A600010BD4FF0E02460610F21601700F032FCF0
:100A70000020A06107202061002010BD7047704752
:100A800070B590F83C20012A26D0012480F83C4023
:100A9000022280F83D2003685A689D6822F07006A3
:100AA0000A6832435A600D4B02689A4208D0B2F18C
:100AB000804F05D00A4B9A4202D00A4B9A4204D189
:100AC000496825F080031943916080F83D4000217A
:100AD00080F83C10084670BD022070BD002C01401B
:100AE000000400400008004090F83D10012901D0AA
:100AF00001207047022180F83D100168CA6842F069
:100B00000102CA6000680B49884208D0B0F1804FEA
:100B100005D00949884202D00849884204D1816839
:100B200001F00701062903D0016841F001010160CD
:100B300000207047002C01400004004000080040E5
:100B40000B48C3680B4A00216BB1C368012B09D164
:100B5000126842604268836802EB03420368D21A5B
:100B60000261C16070471268026081600121F8E78C
:100B700000000020340800402DE9F041054690F8BF
:100B80003C0000260C46012810D0012085F83C00CE
:100B900072B1042A1CD0082A2CD00C2A50D001266D
:100BA000002085F83C003046BDE8F0810220FBE7DC
:100BB000D4E90012E368286800F044FB28688169E2
:100BC00021F00C01816128688169A26811430FE05E
:100BD000D4E90012E368286800F060FB28688169A6
:100BE00021F44061816128688169A26841EA02219B
:100BF0008161D5E72868D4E9002C277B036A016A64
:100C000021F480710162C16923F4007321F00301B2
:100C100041EA0C0121F0F00C39074FF400774CEA5F
:100C2000116107EA02221A43C16102622868C169A0
:100C300021F00C01C1612868C169A26811432BE051
:100C40002868D4E90021E768036AD0F820C02CF4B2
:100C5000805CC0F820C0D0F81CC023F400532CF4F2
:100C6000407C4CEA012121F4704C4FF6FF7101EAFF
:100C700007314FF4005741EA0C0107EA02321A43E8
:100C8000C16102622868C16921F44061C1612868BC
:100C9000C169A26841EA0221C16181E710B504007F
:100CA00003D094F83D0010B107E0012010BD0020F2
:100CB00084F83C00204600F01FF8022084F83D0034
:100CC000211D206800F074FA012084F8460084F8A1
:100CD0003E0084F83F0084F8400084F8410084F826
:100CE000420084F8430084F8440084F8450084F806
:100CF0003D00002010BD000000B585B0002100912E
:100D0000019102910391224A0168224891421CD12B
:100D1000C16941F00201C161C16901F002010491A0
:100D2000816941F0040181618069694600F0040035
:100D30000490802000901848FFF7ACFA002211467A
:100D40001D20FFF709FC1D201EE0144A91421DD111
:100D5000C16941F00401C161C16901F0040104915C
:100D6000816941F0080181618069694600F00800ED
:100D70000490402000900A48FFF78CFA00221146A8
:100D80001E20FFF7E9FB1E20FFF7D8FB05B000BDD2
:100D9000000400400010024000080140000800402C
:100DA000000C014030B50446002551B104290DD096
:100DB000082910D094F8410094F84520012811D159
:100DC0000EE094F83E0094F84220F7E794F83F00D4
:100DD00094F84320F2E794F8400094F84420EDE7BB
:100DE000012A01D0012030BD022059B1042912D0BE
:100DF000082919D084F8410084F845000C2938D01E
:100E0000012534E084F83E0084F842002068C2687E
:100E100042F0020210E084F83F0084F843002068AA
:100E2000C26842F0040207E084F8400084F84400FD
:100E30002068C26842F00802C2600122206800F007
:100E4000F3F90E492068884208D0B0F1804F05D0F0
:100E50000B49884202D00B49884204D1816801F0D5
:100E60000701062903D0016841F00101016028460D
:100E700030BD2068C26842F01002DDE7002C01405E
:100E800000040040000800402DE9F04104460068DD
:100E9000C66805694FF00007A90713D5B10711D53A
:100EA000F91E0161012020772068806980072046B3
:100EB00002D0FFF745FE04E000F07EF8204600F087
:100EC0007CF82777680716D5700714D521686FF06E
:100ED00004000861022020772068806910F4407FB8
:100EE000204602D0FFF72CFE04E000F065F8204613
:100EF00000F063F82777280715D5300713D5216848
:100F00006FF008000861042020772068C06980071E
:100F1000204602D0FFF714FE04E000F04DF8204612
:100F200000F04BF82777E80616D5F00614D52168AF
:100F30006FF010000861082020772068C06910F465
:100F4000407F204602D0FFF7FBFD04E000F034F8BC
:100F5000204600F032F82777E80708D0F00706D0DF
:100F600021686FF001000861204600F027F828068C
:100F700008D5300606D521686FF08000086120464C
:100F8000FFF77CFD680608D5700606D521686FF06E
:100F900040000861204600F019F8A8060AD5B006FE
:100FA00008D521686FF0200008612046BDE8F041B7
:100FB000FFF765BDBDE8F081704770470248816862
:100FC000491C816070470000000000207047FEE768
:100FD00070B586B000241C480094019402940394D8
:100FE000816941F010018161816901F01001049172
:100FF000816941F020018161816901F02001049142
:10100000816941F004018161816901F00401049169
:10101000816941F00801816180690C4E00F008008F
:101020004FF400550490002229463046FFF722FA7B
:1010300001200095CDE90104022003906946304665
:10104000FFF728F906B070BD001002400010014003
:1010500010B586B0002418480594049400940194B7
:10106000029414490394C0E900144FF6FF71C0E9DB
:101070000241802104618161FFF710FE08B172B660
:10108000FEE7049404A90C480594FFF7F9FC08B1A5
:1010900072B6FEE70120CDE90040029404226946C1
:1010A00005480394FFF768FD002801D072B6FEE7FB
:1010B00006B010BD000400402C00002010B586B022
:1010C000002419480594049400940194029415494D
:1010D0000394C0E900144FF6FF71C0E9024180217A
:1010E00004618161FFF7DAFD08B172B6FEE704948E
:1010F00004A90D480594FFF7C3FC08B172B6FEE7DA
:10110000022000900120CDE9010400226946064832
:101110000394FFF731FD002801D072B6FEE706B058
:1011200010BD00000008004074000020FEE7FEE74C
:1011300070477047FFF7AAB930B58FB028216846CD
:10114000FFF742F814210AA8FFF73EF8012108042E
:10115000CDE900100024029402250491CDE9075046
:101160004FF4E01009906846FFF7E4FA08B172B650
:10117000FEE70F20CDE90A054FF48060CDE90C4071
:1011800002210AA80E94FFF719FA002801D072B6BE
:10119000FEE70FB030BD70470148FFF775BE000095
:1011A0002C0000200148FFF76FBE000074000020F3
:1011B000F0B50268194B1A4C1A4D4FF0804798420F
:1011C00005D0B84203D0A04201D0A84203D122F0FA
:1011D00070064A683243984205D0B84203D0A04214
:1011E00001D0A84203D122F44074CA6822434C695A
:1011F00022F08002224302608A68C2620A68826228
:10120000984201D109690163012141610169C9075E
:1012100003D0016921F001010161F0BD002C014002
:10122000000400400008004010B501F01F03012138
:10123000046A99408C430462016A9A401143016236
:1012400010BD000070B5056A046A24F00104046250
:1012500084690F4EB04208D0B0F1804F05D00D4EDA
:10126000B04202D00C4EB04203D124F00304144328
:1012700001E044F001041A0724F0F00444EA126289
:1012800025F00A0301F00A0119438261016270BD71
:10129000002C0140000400400008004030B5046A02
:1012A000056A25F010050562856925F4407545EA53
:1012B000022222F470454FF6FF7202EA033224F054
:1012C000A0032A43A02404EA0111194382610162A8
:1012D00030BDFEE70907090E002804DB00F1E0201D
:1012E00080F80014704700F00F0000F1E02080F853
:1012F000141D7047FFF7D2F8FFF71EFFFFF768FED7
:10130000FFF7A6FEFFF7DAFE1548FFF7EDFB002119
:101310001348FFF747FD134CDFF84C80DFF84C9083
:10132000134E144FDFF850B001254FF4005A2069D6
:1013300095FBF0F000F0E4F84146606100F0F8F849
:10134000494600F01BF8A0613044B84201D20022A7
:1013500000E0012251465846FFF78CF8E7E700000D
:1013600074000020000000200000704200002041B6
:10137000FFFF6EBCFFFF0400001001404FF47F0C24
:101380001CEAD0121EBF1CEAD11392EA0C0F93EA9A
:101390000C0F00F0858090EA010F48BF42F4807284
:1013A00040F4000C41F400002CF07F4120F07F401D
:1013B00000B58142A2EB03020FF2081CACEB504EC9
:1013C000C0F100009EF800E04FEA4E0E00FB0EFC5C
:1013D00038BF49004FEA2C1C02F5FA020CFB0EF351
:1013E0004FEACE1E4FEA112C4FEAC1210EEB635E8D
:1013F00042EB22420EFB0CFC4FEA1C5300FB031194
:101400004FEA112C4FEA01310EFB0CFC4FEADC4C89
:1014100000FB0C11C14228BF09184CEB03335DF8E7
:1014200004EB10EB410143EBC250B2F57C0F38BF27
:10143000704729D512F0F00F1CBF00F1C04000F03A
:1014400000407047008182838485868788898B8CE1
:101450008D8E8F919293959697999A9C9D9FA0A21D
:10146000A3A5A7A8AAACAEB0B2B3B5B7B9BCBEC06D
:10147000C2C5C7C9CCCED1D4D7D9DCDFE2E6E9EC0E
:10148000F0F3F7FAFE0000004FEA400C0CF1807C0C
:10149000BCF17E4F28BF7047B0F1C04000F00FB9DB
:1014A00090EA010F0CEAD11348BF42F48072624502
:1014B00038BF634507D213F47F0F16D080EA0100CE
:1014C00000F00040704710B500F0B3F8097EFC3E14
:1014D00000F005B880EA010000F00040704780EAA3
:1014E000010000F0004000F0EAB812F47F0F04BFE2
:1014F0000248704780EA010000F0E1B80000C07FB8
:1015000010F0004148BF4042B0FA80F310FA03F2F5
:10151000C3F19D030BD051EAC35101EB12205306D6
:1015200038BF704700F1010008BF20F0010070478C
:101530004FF47F0C1CEAD0121EBF1CEAD11392EAB2
:101540000C0F93EA0C0F00F0478090EA010F48BFA0
:1015500042F480724FF0004C4CEA00204CEA01212A
:1015600002EB0302A0FB0113A2F50002002918BF41
:1015700043F001035B0028BF4FEA330342EB2242F2
:101580005FEA132C4CEBC2502EBFBCEB436FB2F59D
:101590007C0F70474FEA036CBCF1004F08BF20F08E
:1015A0000100B2F57C0F38BF70470BD582F0FF0207
:1015B00012F5803FC8BF704700F1C040D8BF00F0AF
:1015C0000040704700F5000C5FEA4C0C48BF7047C4
:1015D000B0F1C04000F073B890EA010F0CEAD113EB
:1015E00048BF42F48072624538BF634504D280EA46
:1015F000010000F00040704710B500F01AF800BF7D
:101600008900013E00F007B800F009B85FEA410C1C
:101610005FEA1C6C08D080EA010000F050B85FEA75
:10162000400C5FEA1C6CF6D14FF00040A0F5800042
:1016300070470EF1020E2EF0030E5EF8044B2442AA
:1016400004D44FEA4102B2F17F4F11D84FEA400370
:10165000B3F17F4F0CD80ED14FEAD07CB2F17F4F5F
:101660000CEB4C0C0CF1020C08BF4CEBD17C04E0F1
:101670004FF0080C01E04FEAD17C0CEB4C0324FA4C
:1016800003F404F00704B4F1040C06D20EEB840C4E
:10169000BDE810404CF0010C6047DFE80CF0070893
:1016A00002024FF00040A0F5800010BD0846420045
:1016B00018BFD2F1807288BF00F0004010BDFF213A
:1016C00041EAD050C0057047010202030405060735
:1016D00008090A0B0C0D0E0F10100000000000008E
:1016E0000000010203040607080900000C170008A7
:1016F000000000202C000000280100083817000816
:101700002C000020F4060000440100080000000046
:1017100000000000000000000000000000000000C9
:1017200000000000000000000100000010000000A8
:081730000000000000127A0025
:04000005080000ED02
:00000001FF
