:020000040800F2
:1000000058080020910100082F2800083B23000811
:100010002D28000845070008DF2A0008000000001E
:10002000000000000000000000000000212900087E
:100030001B090008000000003128000831290008D1
:10004000AB010008AB010008AB010008AB010008E0
:10005000AB010008AB010008AB010008AB010008D0
:10006000AB010008AB010008AB010008E50800087F
:10007000AB010008AB010008AB010008AB010008B0
:10008000AB010008AB010008AB010008AB010008A0
:10009000AB010008AB010008AB010008AB01000890
:1000A000AB010008AB010008AB010008AB01000880
:1000B000AB010008B1290008AB010008AB01000842
:1000C000AB010008AB010008AB010008AB01000860
:1000D000AB010008AB010008AB010008AB01000850
:1000E000AB010008AB010008AB01000800F002F80A
:1000F00000F03FF80AA090E8000C82448344AAF183
:100100000107DA4501D100F034F8AFF2090EBAE880
:100110000F0013F0010F18BFFB1A43F0010318473B
:10012000CC390000EC390000103A24BF78C878C1FF
:10013000FAD8520724BF30C830C144BF04680C60ED
:10014000704700000023002400250026103A28BF35
:1001500078C1FBD8520728BF30C148BF0B60704739
:10016000642900F07180002070471FB51FBD10B5D5
:1001700010BD00F00FFA1146FFF7F7FF02F0C8FCC0
:1001800000F02DFA03B4FFF7F2FF03BC00F030FAE1
:100190000948804709480047FEE7FEE7FEE7FEE71B
:1001A000FEE7FEE7FEE7FEE7FEE7FEE70448054957
:1001B000054A064B70470000AD290008ED00000815
:1001C000580200205808002058040020580400203D
:1001D0000FB41CB5074B06AA7B44694600900598EE
:1001E00000F0BBF90020694600F0CAF91CBC5DF8BC
:1001F00014FB0000A503000070B504468569006883
:10020000C10601D5302600E02026C00707D070BD0A
:10021000D4E9012130469047206A401C20626D1EBF
:10022000F6D570BD70B5044685690078C00707D162
:1002300070BDD4E9012120209047206A401C206233
:100240006D1EF6D570BD00002DE9F0410646002474
:1002500010687529314616A510D0AFF3008000282C
:1002600002DA404213A507E031688A0701D512A5DA
:1002700002E0490704D511A5012401E0AFF3008095
:1002800000210A2206F1240709E0B0FBF2FCB0FBD2
:10029000F2F302FB1C00303078541846491C002849
:1002A000F3D123462A463046BDE8F04100F0F6B8C7
:1002B000000000002D0000002B00000020000000C6
:1002C0002DE9F05F894604464FF0000ADFF874B16B
:1002D000FB44C0F820A02046E1688847002874D07D
:1002E000252806D0D4E901219047206A401C2062CD
:1002F000F1E700265F462046E1688847202805464A
:1003000007DB312D05D2781910F8200C08B106430F
:10031000F1E7B00701D526F00406C4F81CA00027B9
:10032000C4F818A02A2D09D0284602F0E9FB38B3FA
:1003300004EB8708303DC8F8185019E059F8041B41
:10034000204604EB87029161E1688847012F05464A
:1003500018D1E069002820DA26F020061DE0D8F840
:10036000180000EB800005EB40003038C8F818009A
:100370002046E1688847054602F0C2FB0028EED11E
:10038000012F0AD02E2D08D12046E16888477F1C16
:100390000546022F46F02006C4DBA069002803DAD8
:1003A000404246F00106A061F00701D026F0100699
:1003B0006C2D0BD0682D09D04C2D39D06A2D35D03D
:1003C000742D35D07A2D33D016E038E0E1682F4611
:1003D00020468847B842054609D16C2F26D04FF4F5
:1003E0008060E168064320468847054604E06C2F9C
:1003F0001AD04FF4807006430DB3A5F141001928BF
:1004000002D8203546F400664A4629462046266032
:100410004E46FFF7A5FE80B101280BD0F61D26F051
:10042000070000F1080956E74020E4E78020D8E7FC
:100430000020D6E706F104094DE7284652E7206A76
:10044000BDE8F09F063800004FF0000200B51346EB
:1004500094469646203922BFA0E80C50A0E80C50E4
:10046000B1F12001BFF4F7AF090728BFA0E80C5095
:1004700048BF0CC05DF804EB890028BF40F8042B8E
:1004800008BF704748BF20F8022B11F0804F18BFFB
:1004900000F8012B70477047704770472DE9F0470F
:1004A0000D4699469246044600F1240801688806E4
:1004B00004D5E06921F01001216000E00120A8428C
:1004C00001DD471B00E00027A1697A1902EB090052
:1004D000081AA0612078C00602D42046FFF78CFEDF
:1004E000002608E0D4E901211AF806009047206AA6
:1004F000401C761C20624E45F4DB2078C0060AD5ED
:100500002046FFF779FE06E0D4E90121302090472C
:10051000206A401C2062381EA7F10107F4DC07E0C6
:10052000D4E9012118F805009047206A401C206298
:10053000281EA5F10105F3DC2046FFF773FE2078A5
:10054000000602D50220BDE8F0870120FBE700008D
:1005500001694A1C02610878704700B58FB0CDE987
:1005600001310021059105497944CDE90310114677
:100570006846FFF7A5FE0FB000BD0000E5FFFFFFD6
:100580000A6802F8010B0A607047000000487047D3
:10059000F40100207546FFF7F9FFAE4605006946F5
:1005A000534620F00700854618B020B5FFF7FEFD42
:1005B000BDE820404FF000064FF000074FF0000864
:1005C0004FF0000B21F00701AC46ACE8C009ACE8E5
:1005D000C009ACE8C009ACE8C0098D46704710B549
:1005E0000446AFF300802046BDE81040FFF7CABDC7
:1005F00001491820ABBEFEE726000200704700004C
:1006000070B5044600688168C943C90717D181687D
:1006100021F00101816000F0A9FD05460AE000BF5C
:1006200000F0A4FD401B022804D920688068C04364
:10063000C00706D020688068C043C007F0D0002003
:1006400070BDA06A40F01000A062E06A40F00100B6
:10065000E062012070BD10B50146406A826A12F066
:10066000500F05D0006A026BBDE8104008461047E5
:10067000816A41F40071816201688968C1F3424175
:1006800007290CD1017B51B9816A21F48071816203
:10069000816AC90403D4816A41F00101816200F0DA
:1006A000E9F910BD10B5406A816A41F040018162EC
:1006B000C16A41F00401C16200F0DEF910BD10B55D
:1006C000406A00F0D8F910BDF8B50026044600963F
:1006D00000688168C943C9072DD0816841F00101D4
:1006E0008160164816490068B0FBF1F000E0401E3A
:1006F00000900028FBD100F039FD054616E000BF50
:1007000000F034FD401B022810D920688068C043E7
:10071000C0070BD0A06A40F01000A062E06A40F071
:100720000100E06284F824600120F8BD2068806840
:10073000C043C007E4D10020F8BD00007C000020C9
:1007400040420F00FEE710B5044602982160227176
:100750006371A0712820A0720620E0710C20207225
:10076000142060720820E072322000F0F3FB0022B7
:100770003321204600F080F800223321204600F08B
:100780007BF8052000F0E6FB00223221204600F035
:1007900073F8052000F0DEFB00222021204600F047
:1007A0006BF8052000F0D6FBE1790022204600F02E
:1007B00063F8217A0022204600F05EF8617A002278
:1007C000204600F059F8A17A0022204600F054F8A3
:1007D00000220121204600F04FF820460022BDE80B
:1007E0001040022100F048B830B4447900238C4214
:1007F00001D8641EE1B28479944201D8641EE2B249
:1008000032B1012A06D0022A06D0032A06D007E018
:100810000B4605E0403102E0143100E05431CBB228
:1008200030BC43F08001002200F026B8012200F025
:1008300023B80000FEB514460D46064607A16846DB
:10084000089AFFF7C5FC224629463046FFF7CCFF41
:100850006946304600F004F8FEBD0000252A640019
:1008600070B50C46054603E02846641CFFF7DEFF22
:1008700021780029F8D170BD7CB506460807040E22
:10088000F07A01F0F00518B145F0080544F00804CD
:10089000012A01D02AB108E045F0010544F0010425
:1008A00003E025F0010524F0010445F004008DF873
:1008B0000400012000F04EFB8DF8055044F00400C8
:1008C0008DF80600012000F045FB4FF47A708DF89A
:1008D000074000903179042301AA306800F010FD30
:1008E0007CBD0000014800F025BA0000B0010020E6
:1008F00030B590F840500124AC40C56B6C60046882
:1009000063604368102B036803D099600068C2607D
:1009100030BD9A600068C16030BD704772B6FEE7B6
:1009200030B590F82420012A1ED0012280F824201E
:100930000A7A012A0268536818D023F040035360F2
:10094000D1E900231A4303685C680A4D2C40224316
:100950005A600368CA685A62026809699162002194
:1009600080F82410084630BD022030BD43F040031B
:10097000E5E70000E0FD3FFFF8B50024009490F8A3
:1009800024202546012A12D0012280F824204A681A
:100990001F23072A0DD20668776B521E02EB8202D4
:1009A00093409F430B6893401F43776319E00220F5
:1009B000F8BD06680D2A0AD2376BD21F02EB8202FD
:1009C00093409F430B6893401F43376309E0F76AE6
:1009D0000D3A02EB820293409F430B6893401F4302
:1009E000F7620A68072306680A2A0AD3F7680A3AF0
:1009F00002EB420293409F438B6893401F43F76092
:100A000008E0376902EB420293409F438B689340B2
:100A10001F4337610A68102A01D0112A20D1124BD6
:100A200002689A4217D193681B0219D4936843F461
:100A3000000393600968102912D10C490C4A096817
:100A4000B1FBF2F101EB8101490000E0491E009188
:100A50000029FBD104E0816A41F020018162012478
:100A600080F824502046F8BD002401407C0000207E
:100A700040420F0070477047704700002DE9F04179
:100A80004FF0000704003D467ED0A06A002628B93A
:100A9000E66284F82460204600F07EF82046FFF7E6
:100AA000AFFDA16AC90600D420B1A06A40F01000D1
:100AB000A06269E0A16A21F4885141F00201A162BB
:100AC0006268E169237B0A4347EA43010A43A1685C
:100AD0004FF48077B94209D0012907D05FF00001B7
:100AE00094F814C0BCF1010F02D00AE03946F7E7D0
:100AF000F3B1A36A43F02003A362E36A43F0010366
:100B0000E3622368D3F804C02CF4694C4CEA010C6E
:100B1000C3F804C021688B68DFF870C003EA0C03D7
:100B200013438B60A168B9420BD0012909D00CE0B6
:100B3000DFF85CC0A3690CEB43330B4343F4006163
:100B4000DFE7218A0D05A5F580152168CB6A23F41E
:100B500070032B43CB62216889680E4B1940914288
:100B600008D1E662A16A21F0020141F00101A1620F
:100B7000BDE8F081A06A20F0020040F01000A06201
:100B8000E06A40F00100E0620120F1E7FDF7E1FFDB
:100B900000E0FFFFFE0E1FFF70B586B00025064681
:100BA000009501950295039500681A4988422ED157
:100BB0001949886940F400708861886900F4007000
:100BC0000490886940F0040088618869694600F0F3
:100BD0000400049030200090032001900F4800F0A2
:100BE000CBF9104C0E48C4E900058020C4E902503E
:100BF00040002061800060612020C4E90605204695
:100C000000F042F908B1FFF789FE3462666206B06F
:100C100070BD0000002401400010024000080140A7
:100C200008000240B00100202DE9F0478946044643
:100C30003B4900683B4F0E1D9046884201D0B842A8
:100C400007D1306810F4702F03D001252846BDE885
:100C5000F08794F8240001280CD0012084F82400A7
:100C60002046FFF731FD05004FF0000004D084F866
:100C70002400EBE70220EAE7A16A40F60162914313
:100C800041F48071A1622168B94218D1326812F42E
:100C9000702F14D0A16A41F48011A1623168490516
:100CA00005D5A16A21F4005141F48051A162A16AE5
:100CB000C9040AD5E16A21F00601E16206E0A26AF0
:100CC00022F48012A2624968E9E7E06284F8240015
:100CD000216A15488862216A1448C862216A14484A
:100CE000086321686FF0020008602068816841F4A1
:100CF00080718160216843464A464C31206A00F089
:100D0000F1F820688168C1F342410729816803D066
:100D100041F48011816099E741F4A001FAE70000F5
:100D2000002401400028014057060008BF060008C3
:100D3000A50600082DE9F05FC16B0C6801680B681F
:100D4000D0F840C0042202FA0CF2494DDFF824A189
:100D5000494E4A4FDFF828B1DFF828E122422CD073
:100D60005A072AD50A68920603D40A6822F00402B8
:100D70000A600168A94201D1042219E0514501D15C
:100D8000402215E0B14202D14FF4806210E0B94236
:100D900002D14FF480420BE0594502D14FF480223A
:100DA00006E0714502D14FF4800201E04FF080620D
:100DB0002F4908394A60C16A3BE04FF0020808FA3F
:100DC0000CF818EA040F4FF000094FF0010235D07B
:100DD0005FEA837832D50B689B0605D40B6823F055
:100DE0000A030B6080F821200168A94201D1022288
:100DF00019E0514501D1202215E0B14202D14FF452
:100E0000007210E0B94202D14FF400520BE0594594
:100E100002D14FF4003206E0714502D14FF40012C6
:100E200001E04FF00072124908394A6080F82090C2
:100E3000816A00291AD0BDE8F05F0847082505FA45
:100E40000CF5254212D01B0710D50B6823F00E03BA
:100E50000B6090F84010C36B02FA01F15960826395
:100E600080F8212080F82090016BE2E7BDE8F09F38
:100E7000080002401C0002403000024044000240D2
:100E8000580002406C00024030B528B308C813492E
:100E900014221944B1FBF2F18900C1631049816346
:100EA000022141771A6843F6F0718A43D0E90014B1
:100EB0002143D0E902452C4321430469214344697D
:100EC00021438469214311431960002141630122B8
:100ED00042770177084630BD012030BDF8FFFDBFE5
:100EE0000000024070B5044690F82000002501285B
:100EF0000CD0012084F8200094F821600020012EFD
:100F000006D084F820000225284670BD022070BD5E
:100F1000022684F82160A0632068066826F0010696
:100F200006602046FFF7E4FCE06A002820680168BC
:100F300002D041F00E0106E021F0040101602068BA
:100F4000016841F00A0101602068016841F0010177
:100F50000160D9E770B5044600F008F90546601C49
:100F600002D004480078044400F000F9401BA0427D
:100F7000FAD370BD700000202DE9F84FDFF8B8916A
:100F80000024A9F1040B23460F2709F1040AABF151
:100F9000040EC9E00125A5402A40AA427DD1674E32
:100FA000D1F804C0ACEB0608B44532D014DCBCF177
:100FB000030F3AD009DCBCF1000F2AD0BCF1010FBD
:100FC0001CD0BCF1020F31D11DE0BCF1110F17D0C4
:100FD000BCF1120F2AD119E0B8F5881F19D006DC30
:100FE000B8F5803F15D0B8F5801F1FD111E0B8F5D6
:100FF000001F0ED0B8F5041F18D10AE0CB6815E029
:10100000CB681B1D12E0CB6808330FE0CB680C33B4
:101010000CE08B682BB1012B4FF0080303D0456126
:1010200004E0042302E0056100E00023FF2A01D868
:10103000064601E000F104064FEA840501D9A5F156
:101040002005D6F8008007FA05FC28EA0C0803FA08
:1010500005F548EA0508C6F800804D68ED0062D540
:10106000374DAE6946F00106AE61AD6924F0030666
:1010700005F001050095334D06EB050CDCF8085032
:10108000A607360F07FA06F825EA0805DFF8B88044
:10109000404503D14FF0000817E044E0DFF8AC8092
:1010A000404502D14FF001080FE0DFF8A480404531
:1010B00002D14FF0020808E0DFF89880404502D1E5
:1010C0004FF0030801E04FF0040808FA06F848EA78
:1010D0000508CCF808804D68D9F80060ED024D464F
:1010E00001D5164300E096432E604D68DAF80060A3
:1010F000AD02554601D5164300E096432E604D687B
:10110000DBF80060AD035D4601D5164300E0964371
:101110002E604D68DEF80060ED03754601D516437C
:1011200000E096432E60641C0D682A46E5407FF47B
:1011300031AFBDE8F88F0000080401400000111035
:10114000001002400000014000080140000C014076
:1011500000100140001401408068084000D00120C8
:1011600070470AB1016170470904FBE701488068D4
:10117000704700007000002070B5040025D094F87E
:101180003D00002520B984F83C50204600F04EF97F
:10119000242084F83D002068016821F001010160ED
:1011A0002068016841F4004101602068016821F471
:1011B0000041016000F00CFB4D4A6168914201D88A
:1011C0004C4900E04C49884201D2012070BD4B4996
:1011D0002368B0FBF1F15E6826F03F060E435E60C7
:1011E0006368934206D94FF4967359434FF47A7368
:1011F000B1FBF3F12368491C1E6A26F03F06314318
:1012000019626168914210D84900401EB0FBF1F2AA
:10121000521CC2F30B02042A01D2042022E0B0FBCC
:10122000F1F0401CC0F30B001CE0A268F2B301EB2C
:10123000C10303EB0116431EB3FBF6F35B1C43F43F
:1012400080431B0549D092B301EBC10202EB0111AF
:10125000401EB0FBF1F0401CC0F30B0040F4804096
:1012600040F400402168CA694CF6FF739A4310436A
:10127000C861D4E9071001432068026822F0C00267
:1012800011430160D4E9030101432068826848F2F8
:10129000FF339A4311438160D4E905010843216873
:1012A000CA6822F0FF021043C86001E00EE016E0B9
:1012B0002068016841F0010101602564202084F864
:1012C0003D00256384F83E50002070BD01EB4106CF
:1012D000431EB3FBF6F35B1CB3E70120C2E701EB4F
:1012E0004101401EB0FBF1F0401CC0F30B00B7E71A
:1012F000A086010080841E0000093D0040420F00CE
:101300002DE9F84F1F4690468A460446DDF828909E
:10131000FFF72CFF054694F83D0020287FD11923C4
:10132000012240492046009501F09AF8002876D124
:1013300094F83C00012872D0012084F83C00206819
:101340000168C90703D1016841F00101016020680B
:10135000016821F400610160212084F83D00102023
:1013600084F83E0000262664C4F824806785608DDA
:1013700020852D48E0622B464A465146204600F023
:10138000F5FF90B9206841698069009036E02A46EF
:101390004946204601F00AF950B1206C042804D1D6
:1013A0002068016841F4007101600120BDE8F88FF8
:1013B000606A216800780861606A401C6062618D23
:1013C000491E6185218D491E89B221852268536994
:1013D000DB435B070BD451B100781061606A401C9D
:1013E0006062608D401E6085208D401E20852A46EB
:1013F0004946204601F008F80028CED1208D00286B
:10140000C5D154F83D0B016841F400710160202002
:1014100004F81E09E67766770020C7E7FFE7022099
:10142000C4E70000020010000000FFFF10B586B006
:101430000021009101910291039100680F498842B7
:101440001AD10F4CA06940F00800A061A06969465C
:1014500000F008000490C0200090122001900320AA
:1014600003900848FFF788FDE06940F40010E06150
:10147000E06900F40010049006B010BD0054004074
:1014800000100240000C01400248816802781144BB
:101490008160704770000020074810B5016841F076
:1014A00010010160032000F075F8002000F006F83C
:1014B00000F024F8002010BD0020024070B50D4D52
:1014C00004464FF47A712878B1FBF0F00A490968B4
:1014D000B1FBF0F000F089FC48B9102C07D20022D3
:1014E0002146501E00F036F800206C6070BD0120CF
:1014F00070BD0000700000207C0000200C4808B582
:10150000816941F001018161816901F0010100916E
:10151000C16941F08051C161C06900F08050009004
:101520000448416821F0E06141F00071416008BD6C
:101530000010024000000140002809DB00F01F02FB
:10154000012191404009800000F1E020C0F8001125
:1015500070470000F0B40E4B1B680C46C3F3022327
:10156000C3F10705042D00D90425191D072901D24F
:10157000002300E0DB1E012606FA05F1491E21408A
:1015800099409E40761E16403143F0BC01F0A8BA47
:101590000CED00E0064900F0070208684FF6FF0373
:1015A000184040EA0220034A1043086070470000D8
:1015B0000CED00E00000FA052DE9F843054600783F
:1015C000354CC00754D0E0690026C00008D4E0695B
:1015D00040F08050E061E069012600F0805000900A
:1015E0002E480168C90512D40168804641F4807113
:1015F0000160FFF7BBFD074605E000BFFFF7B6FD42
:10160000C01B642823D8D8F80000C005F6D5206A8E
:1016100010F4407021D0A98801F4407181421CD09F
:10162000206A1F49012220F440700A6000220A60EB
:101630002062C00711D0FFF799FD074641F28838B4
:1016400008E000BFFFF792FDC11B414502D903200E
:10165000BDE8F883206A8007F4D5206A696820F421
:101660004070084320621EB1E06920F08050E061C4
:101670002878800705D56068A96820F440400843B1
:1016800060602878C00605D56068E96820F48000AD
:10169000084360600020DBE700100240007000405B
:1016A000400442422DE9F0470F46050061D0434E09
:1016B000306800F00700B84209D2306820F0070017
:1016C00038433060306800F00700B84251D12868D4
:1016D0003B4C810712D5400703D5606840F4E060B9
:1016E00060602878000703D5606840F4605060604F
:1016F0006068A96820F0F000084360602878C0079F
:1017000028D06868012810D02168022810D08907E5
:1017100000292EDA616821F0030101436160FFF7BF
:1017200025FD804641F288390DE021688903EFE705
:101730008901EDE7FFF71AFDA0EB0801494502D941
:101740000320BDE8F0876068696800F00C00B0EB2A
:10175000810FEFD1306800F00700B8420BD9306834
:1017600020F0070038433060306800F00700B842CE
:1017700001D00120E5E72878400705D56068E968D1
:1017800020F4E060084360602878000706D56068B0
:10179000296920F4605040EAC100606000F028F838
:1017A0006168084AC1F30311515CC84006490860EA
:1017B00006480068FFF782FE0020C2E700200240D2
:1017C00000100240C23A00087C0000207400002093
:1017D0000448054900684968044AC1F30221515C84
:1017E000C84070477C00002000100240D23A000838
:1017F0000E4A51680E4801F00C03042B11D0082B3F
:101800000FD10C48C1F38343C903C05C0AD55168AA
:10181000084AC1F34041921E515C054A5043B0FB57
:10182000F1F070470449484370470000001002403F
:1018300000127A00B23A000800093D002DE9F84F85
:10184000040070D02078C04DC00749D06868C0F34C
:101850008100012807D06868C0F38100022809D1FF
:101860006868C00306D52868800339D560680028F9
:10187000E7D035E06068B0F5803F0BD010B1B0F52F
:10188000A02F11D0286820F480302860286820F428
:10189000802002E0286840F480302860606890B1C1
:1018A000FFF764FC06460AE0286840F480202860C0
:1018B000F0E700BFFFF75AFC801B642873D8286844
:1018C0008003F7D50CE0FFF751FC064605E000BFAA
:1018D000FFF74CFC801B6428F0D828688003F7D4FD
:1018E00020789A4E80074FF001094FF0000839D553
:1018F000686810F00C0F07D06868C0F381000228F8
:1019000009D16868C00306D42868800714D5206907
:10191000012808D110E02069B0B1C6F80090FFF7A7
:1019200025FC074605E00AE1FFF720FCC01B022862
:10193000C4D828688007F7D52868616920F0F800C6
:1019400040EAC10028600DE0C6F80080FFF70EFCF9
:10195000074604E0FFF70AFCC01B022823D82868CA
:101960008007F7D4207800072CD57948A169D9B130
:10197000C0F80090FFF7FAFB074604E0FFF7F6FB1C
:10198000C01B02280FD8686A8007F7D571484FF44A
:10199000FA510068B0FBF1F0009000BF0098411EC2
:1019A0000091FAD20EE080E0C0F80080FFF7DEFB85
:1019B000074604E0FFF7DAFBC01B022875D8686A07
:1019C0008007F7D42078400760D5E8690027C00079
:1019D00008D4E86940F08050E861E869012700F028
:1019E000805000905C480168C90513D401688346A3
:1019F00041F480710160FFF7B9FB824606E000BF49
:101A0000FFF7B4FBA0EB0A0064284ED8DBF8000017
:101A1000C005F5D5E06801280AD008B1052813D023
:101A2000286A20F001002862286A20F0040002E001
:101A3000286A40F001002862E06841F2883B98B1D2
:101A4000FFF794FB82460BE0286A40F0040028620E
:101A5000EEE700BFFFF78AFBA0EB0A0159455AD811
:101A6000286A8007F6D50CE0FFF780FB824605E088
:101A7000FFF77CFBA0EB0A0159454CD8286A800788
:101A8000F6D41FB1E86920F08050E861E06988B3BE
:101A90006968C1F38101022944D00228C6F8608038
:101AA00004D0FFF763FB044638E034E0FFF75EFB49
:101AB000074604E0FFF75AFBC01B02282BD8286812
:101AC0008001F7D4206AB0F5803F05D16868A1682D
:101AD00020F4003008436860D4E9080108436968CD
:101AE00021F4741108436860C6F86090FFF73EFB6C
:101AF000044606E025E000BFFFF738FB001B022884
:101B000009D828688001F7D51BE000BFFFF72EFB3E
:101B1000001B022802D90320BDE8F88F2868800145
:101B2000F4D40EE00128F7D06868226A00F480310E
:101B3000914204D1616A00F47010884201D0012002
:101B4000EAE70020E8E700000010024000004242FF
:101B5000800442427C0000200070004070B5040008
:101B600009D0606A002540B125616561A56294F8DD
:101B7000510040B10CE0012070BD6068B0F5827F7B
:101B8000F4D0E561F2E784F85050204600F040F8C8
:101B9000022084F851002068016821F040010160B2
:101BA000A088218900F4827001F404410843A189CE
:101BB00001F400610843217C01F002010843217D0A
:101BC00001F001010843218B01F400710843217FDA
:101BD00001F03801084394F8201001F08001084317
:101BE000218D01F40051084321680860A069042197
:101BF00001EA1040216848602068C16921F4006151
:101C0000C1616565012084F85100002070BD0000AD
:101C100030B585B0002400940194029403940068C8
:101C20001549884225D11548C16941F48041C161F7
:101C3000C16901F480410491816941F00801816129
:101C400080690F4D00F0080004904FF42040009090
:101C5000022001900320039069462846FFF78CF983
:101C60004FF48040CDE90004694628460294FFF70E
:101C700083F905B030BD000000380040001002407C
:101C8000000C01402DE9F84F984616468A46044656
:101C9000FFF76CFA814694F8510001281ED1BAF181
:101CA000000F73D0002E71D094F85000012815D089
:101CB000012784F85070032084F8510000256565E1
:101CC000C4F830A0A686E686A563A587E587656487
:101CD0002564A068B0F5004F03D00CE00220BDE8F9
:101CE000F88F2068016821F04001016020680168D8
:101CF00041F48041016020680168490603D401680D
:101D000041F040010160E068B0F5006F606803D009
:101D100048B3012E27D047E008B1012E1FD1206B18
:101D200021680088C86006E020688168890709D5B5
:101D3000216B0988C160206B801C2063E08E401EEF
:101D4000E0860CE0FFF712FAA0EB0901414503D34E
:101D5000B8F1FF3F03D035E0B8F1000F32D0E08E8C
:101D60000028E1D123E0206B21680078087306E0A9
:101D70002068816889070AD5216B09780173206B77
:101D8000401C2063E08E401EE0860DE02BE0FFF754
:101D9000EDF9A0EB0901414503D3B8F1FF3F03D0B2
:101DA00010E0B8F1000F0DD0E08E0028E0D14A46D7
:101DB0004146204600F03DFD08B120206065A06846
:101DC00030B109E084F8517084F85050032086E760
:101DD0002068C1688068009084F8517004F8505FF2
:101DE00060680028F3D0012079E710B5401EB0F1FB
:101DF000807F01D3012010BD4FF0E02460610F21EE
:101E0000601700F06DFE0020A06107202061002017
:101E100010BD70477047000070B590F83C20012A53
:101E200026D0012480F83C40022280F83D2003683F
:101E30005A689D6822F070060A6832435A600D4B5A
:101E400002689A4208D0B2F1804F05D00A4B9A42FC
:101E500002D00A4B9A4204D1496825F08003194305
:101E6000916080F83D40002180F83C10084670BD2C
:101E7000022070BD002C014000040040000800401A
:101E800090F83D10012901D001207047022180F80F
:101E90003D100168CA6842F00102CA6000680B493F
:101EA000884208D0B0F1804F05D00949884202D05D
:101EB0000849884204D1816801F00701062903D04E
:101EC000016841F00101016000207047002C0140D1
:101ED000000400400008004011488369114A0021B5
:101EE0009BB18369012B15D08369022B0CD1126839
:101EF00002610269436902EB03228368D21A02621B
:101F000081618160C16001617047126882604161D6
:101F1000012102E01168C160022181617047000067
:101F200000000020380400402DE9F041054690F8FB
:101F30003C0000260C46012810D0012085F83C000A
:101F400072B1042A1CD0082A2CD00C2A50D00126A9
:101F5000002085F83C003046BDE8F0810220FBE718
:101F6000D4E90012E368286800F072FD28688169EE
:101F700021F00C01816128688169A26811430FE09A
:101F8000D4E90012E368286800F08EFD28688169B2
:101F900021F44061816128688169A26841EA0221D7
:101FA0008161D5E72868D4E9002C277B036A016AA0
:101FB00021F480710162C16923F4007321F00301EF
:101FC00041EA0C0121F0F00C39074FF400774CEA9C
:101FD000116107EA02221A43C16102622868C169DD
:101FE00021F00C01C1612868C169A26811432BE08E
:101FF0002868D4E90021E768036AD0F820C02CF4EF
:10200000805CC0F820C0D0F81CC023F400532CF42E
:10201000407C4CEA012121F4704C4FF6FF7101EA3B
:1020200007314FF4005741EA0C0107EA02321A4324
:10203000C16102622868C16921F44061C1612868F8
:10204000C169A26841EA0221C16181E710B50400BB
:1020500003D094F83D0010B107E0012010BD00202E
:1020600084F83C00204600F01FF8022084F83D0070
:10207000211D206800F0A2FC012084F8460084F8AD
:102080003E0084F83F0084F8400084F8410084F862
:10209000420084F8430084F8440084F8450084F842
:1020A0003D00002010BD000000B585B0002100916A
:1020B00001910291039100681249884220D112488F
:1020C000C16941F00201C161C16901F002010491DD
:1020D000816941F0040181618069694600F0040072
:1020E000049080200090012002900848FEF744FFF1
:1020F000002211461D20FFF72DFA1D20FFF71CFAC4
:1021000005B000BD0004004000100240000801407E
:1021100030B50446002551B104290DD0082910D04E
:1021200094F8410094F84520012811D10EE094F86C
:102130003E0094F84220F7E794F83F0094F84320DB
:10214000F2E794F8400094F84420EDE7012A01D02A
:10215000012030BD022059B1042912D0082919D01C
:1021600084F8410084F845000C2938D0012534E07A
:1021700084F83E0084F842002068C26842F00202FF
:1021800010E084F83F0084F843002068C26842F001
:10219000040207E084F8400084F844002068C26824
:1021A00042F00802C2600122206800F043FC0E49A0
:1021B0002068884208D0B0F1804F05D00B49884292
:1021C00002D00B49884204D1816801F00701062939
:1021D00003D0016841F001010160284630BD20684C
:1021E000C26842F01002DDE7002C0140000400400C
:1021F000000800402DE9F04104460068C668056902
:102200004FF00007A90713D5B10711D5F91E0161D9
:1022100001202077206880698007204602D0FFF7E0
:102220005BFE04E000F07EF8204600F07CF82777A3
:10223000680716D5700714D521686FF0040008618F
:10224000022020772068806910F4407F204602D069
:10225000FFF742FE04E000F065F8204600F063F866
:102260002777280715D5300713D521686FF00800A8
:102270000861042020772068C0698007204602D0CA
:10228000FFF72AFE04E000F04DF8204600F04BF87E
:102290002777E80616D5F00614D521686FF01000F0
:1022A0000861082020772068C06910F4407F20462C
:1022B00002D0FFF711FE04E000F034F8204600F0F1
:1022C00032F82777E80708D0F00706D021686FF0CA
:1022D00001000861204600F027F8280608D53006DE
:1022E00006D521686FF0800008612046FFF791FD58
:1022F000680608D5700606D521686FF040000861B1
:10230000204600F019F8A8060AD5B00608D52168BD
:102310006FF0200008612046BDE8F041FFF77ABD6C
:10232000BDE8F0817047704702484169491C41612E
:1023300070470000000000207047FEE701684A690E
:10234000D24352050FD46FF480624A61002140F8F5
:10235000301F202242738173026942F0040202613D
:10236000017301207047002070470000F8B5044653
:10237000C06A1E460D461746082807D0012805D01A
:1023800010F5803F02D0206B122804D1206801682C
:1023900041F480710160134600224FF00111204684
:1023A000009600F05DF840B120680068C00502D5D5
:1023B0004FF4007020640320F8BD2069B0F5804F11
:1023C0000ED00620216800EAD51040F0F000086128
:1023D00033463A460B49204600F08AF878B902E0C5
:1023E00005F0FE0000E0E8B22168086105493346C7
:1023F0003A46891F204600F07BF80028DCD00120F7
:10240000F8BD00000800010070B516460D460446F0
:102410001EE02046FFF792FF08B1012070BD681C46
:1024200016D0FEF7A3FE801BA84200D885B920680D
:102430004069C04340070BD5002044F8300F2021ED
:102440006173A073216941F0200121612073E4E7E9
:1024500020684069C0434007DBD4002070BD000005
:102460002DE9F047984617460D460446C1F3074646
:10247000DDF820902AE000BFB8F1FF3F26D0FEF73C
:1024800075FEA0EB0901414502D8B8F1000F1DD13E
:102490002068012E16D0806925EA00000004000C97
:1024A00012D00020B84211D1002044F8300F202172
:1024B0006173A073216941F0200121612073012023
:1024C000BDE8F0874069E7E70120EBE72068012ECF
:1024D0000AD0806925EA00000004000C06D0002024
:1024E000B842C9D00020EBE74069F3E70120F7E7E5
:1024F0002DE9F047984616460D4604464FF0000970
:102500004FF0200AC1F3074723E020684069C04329
:10251000400515D42068016841F40071016021680C
:102520006FF480604861C4F8309084F83DA084F86E
:102530003E90216C41F00401216484F83C9021E03C
:10254000701C06D0FEF712FEA0EB0800B04203D8C4
:1025500016B1012F1FD021E02068012F15D080690E
:1025600025EA00000004000C18D000BF44F8309F9A
:1025700084F80DA084F80E90216941F020012161BA
:1025800084F80C900120BDE8F087406925EA00003E
:102590000004000CEAD12068406901E020688069ED
:1025A00025EA00000004000CAFD1ECE770B5164638
:1025B0000D4604461EE02046FFF7C0FE08B101208C
:1025C00070BD681C16D0FEF7D1FD801BA84200D854
:1025D00085B920684069C04300060BD5002044F847
:1025E000300F20216173A073216941F02001216126
:1025F0002073E4E720684069C0430006DBD4002074
:1026000070BD0000F0B589B0182103A8FDF71CFFCC
:1026100000242048009401941D490294016089150A
:102620008160012505730475022606614FF460215F
:102630004460C161FEF722FA08B172B6FEE716489F
:10264000069404270794CDE903078DF8144003A9E5
:102650001048FEF765F908B172B6FEE7072000974B
:10266000CDE9015069460B48FEF786F908B172B60C
:10267000FEE70520CDE90006694602950548FEF70C
:102680007BF9002801D072B6FEE709B0F0BD00006A
:102690000024014080000020000280002DE9F04F5E
:1026A00085B0002431480094019402940394816918
:1026B00041F010018161816901F01001049181698B
:1026C00041F020018161816901F02001049181695B
:1026D00041F004018161816901F004010491816983
:1026E00041F0080181618069DFF8849000F0080002
:1026F0004FF400550490002229464846FEF731FD6C
:10270000DFF870A048F20B07002239465046FEF76A
:1027100028FDDFF864B04FF4805801224146584646
:10272000FEF71FFD0095022601250396CDE9015411
:1027300069464846FEF720FC00970396CDE9015410
:1027400069465046FEF718FCCDE90085CDE90256F2
:1027500069465846FEF710FC18208DE8510069467E
:102760005846FEF709FC05B0BDE8F08F00100240A6
:102770000010014000080140000C01400E4810B557
:102780000C4901604FF48271416000218160C16099
:102790004FF400720161C0E90512C161016241623A
:1027A00081620A21C162FFF7D9F9002801D072B60F
:1027B000FEE710BD003800400401002010B586B0CF
:1027C0000024194805940494009401940294154936
:1027D0000394016041F2FF11C0E90114FF21C0E937
:1027E000031480218161FFF731FC08B172B6FEE766
:1027F000049404A90C480594FFF70EFB08B172B6C7
:10280000FEE70120CDE90040029404226946064813
:102810000394FFF789FB002801D072B6FEE706B0EB
:1028200010BD0000000400405C010020FEE7FEE750
:102830007047F8B515460E460B4600920446012235
:10284000022100F011F840B93346002280212046D1
:10285000009500F009F8002804D0606D40F02000D9
:1028600060650320F8BD00002DE9F8431E4691463F
:1028700088460446089DFEF779FC401B351AFEF792
:1028800075FC074625480068C0F3CB30684338E044
:10289000701C37D0FEF76AFCC01BA84203D215B1EA
:1028A000009860B32CE02068416821F0E0014160AD
:1028B0006068B0F5827F0BD1A068B0F5004F02D000
:1028C000B0F5806F04D12068016821F040010160FB
:1028D000A06AB0F5005F09D12068016821F40051B9
:1028E00001602068016841F400510160012084F812
:1028F0005100002084F850000320BDE8F883002533
:10290000401E00902068816838EA010004D0002150
:102910004945BDD10020F0E70121F9E77C00002006
:1029200070470000014B83E8070070473C0000201F
:10293000FEF7AABD30B593B028216846FDF784FDA7
:1029400014210AA8FDF780FD002501200F951095A0
:102950001195010412958DE8230004904FF4E010C6
:10296000CDE90810022407946846FEF767FF08B116
:1029700072B6FEE70AA90F2081E831004FF48060AB
:10298000CDE90D0502210AA8FEF78CFE08B172B64A
:10299000FEE74FF4004011900F940FA8FEF70CFED5
:1029A000002801D072B6FEE713B030BD70470000BA
:1029B0000148FFF71FBC00005C010020F0B5026871
:1029C000194B1A4C1A4D4FF08047984205D0B84227
:1029D00003D0A04201D0A84203D122F070064A6879
:1029E0003243984205D0B84203D0A04201D0A84259
:1029F00003D122F44074CA6822434C6922F0800259
:102A0000224302608A68C2620A688262984201D1E7
:102A100009690163012141610169C90703D00169A5
:102A200021F001010161F0BD002C014000040040D3
:102A30000008004010B501F01F030121046A99400D
:102A40008C430462016A9A401143016210BD000088
:102A500070B5056A046A24F00104046284690F4EAB
:102A6000B04208D0B0F1804F05D00D4EB04202D038
:102A70000C4EB04203D124F00304144301E044F0AF
:102A800001041A0724F0F00444EA126225F00A0354
:102A900001F00A0119438261016270BD002C0140FE
:102AA000000400400008004030B5046A056A25F0C3
:102AB00010050562856925F4407545EA022222F475
:102AC00070454FF6FF7202EA033224F0A0032A4356
:102AD000A02404EA011119438261016230BDFEE7BE
:102AE0000907090E002804DB00F1E02080F800143B
:102AF000704700F00F0000F1E02080F8141D7047CF
:102B000030380A2801D201207047002070470000A9
:102B10001CB5FEF7C1FCFFF70DFFFFF7BFFDF7483F
:102B2000416941F0010141614069002200F001006A
:102B3000009003210B20FEF70DFD0B20FEF7FCFC9F
:102B4000FFF73CFEFFF75EFDFFF718FEED48EC498E
:102B500000250160EC49C0E901154FF48041C0E94E
:102B6000035145618561C5610562FEF705FB08B14A
:102B700072B6FEE7E348AC30FFF782F9E148042182
:102B8000AC30FFF7C5FA4FF08041E04A0846FFF746
:102B9000C9FEDC49042714234E2201F1F4000097FA
:102BA000FDF7D1FD4FF0020A4FF0030B40F24C4904
:102BB0004FF48058D64ED74C50E000224146304664
:102BC000FEF7CFFAD349CF480A230122491D5430DA
:102BD000FFF758F8012241463046FEF7C2FAC820F6
:102BE000FEF7B8F9206A78B3206A10B3206A00F0C3
:102BF00084FCC94AC94B00F0CFFC02460B460020BA
:102C0000C74900F0B7FAA065E165C64BA06D002288
:102C1000E16D00F0C1FC20666166C34B206E0022AE
:102C2000616E00F0B9FC0022C04B00F0A3FAA06670
:102C3000E1666069C8280CD9256201220821BC48D8
:102C4000FEF78FFAA56109E0FFE7002020666066C5
:102C5000EFE700220821B648FEF783FA0821304644
:102C6000FEF77AFA0128A8D010213046FEF774FA50
:102C700060620022206E1346616E00F0D3FB02D129
:102C8000606A012811D00022206E1346616E00F0A8
:102C9000C9FB01D1606A50B1E069E061E0690128D7
:102CA00007D0E069002877D0C9E1E561F6E70120A7
:102CB000F3E7206A78B3206A10B3206A00F01DFCA5
:102CC000954A964B00F068FC02460B46002094495A
:102CD00000F050FAA065E165924BA06D0022E16D15
:102CE00000F05AFC206661668F4B206E0022616EF8
:102CF00000F052FC00228D4B00F03CFAA066E16629
:102D00006069C8280ED92562012208218848FEF78B
:102D100028FAA5610BE0FFE7002121666166A16644
:102D2000E166EDE7002208218148FEF71AFA002249
:102D3000206E1346616E00F02DFD0AD87D4B206E8B
:102D40000022616E00F0ECFB03D20120C4E90D0506
:102D500033E0784B206E0022616E00F01BFD0AD23A
:102D6000754B206E0022616E00F0DAFB03D2012069
:102D7000C4E90DA021E0704B206E0022616E00F0CE
:102D800009FD0AD26D4B206E0022616E00F0C8FB77
:102D900003D2C4E90DBA10E0EDE0684B206E0022CA
:102DA000616E00F0F7FC08D2654B206E0022616E68
:102DB00000F0B6FB01D2C4E90D7B5649514801220F
:102DC00054313038FDF730FF606D484501D2A562BF
:102DD0004CE0A0F24D4240F257218A4204D2012039
:102DE000A06240F2262018E0A0F2A5628A4204D236
:102DF0004FF43970C4F828A00FE0A0F6FD01B1F53A
:102E0000F97F04D840F2B540C4F828B005E0B0F529
:102E10002F6F04D940F29650A762206301E0A06AA8
:102E200020B3A16A606B814222DDE0624548A16B5C
:102E300050F8210000F01CFD00F0E2FC424A434B38
:102E400000F0AAFBCDE90001206E616E00F054F99C
:102E500000F0D6FCDDE9002300F09CFC0AD8E06A13
:102E6000401CE062A06B401CA06303E0E5621EE032
:102E70000BD1E062E06AD0B1012821D0022829D02C
:102E8000032831D0042865D0D9E0E562206B00F03A
:102E9000EFFC2F4900F038FD0090206E616E00F0CD
:102EA0002BF9009900F0FCFCE0D2A06AE1E70022D7
:102EB00041463046FEF755F90A230122154951E0F3
:102EC000002241463046FEF74CF912490A230122FE
:102ED000491C47E0002241463046FEF742F90D49C1
:102EE0000A230122891C3DE0002241463046FEF7BC
:102EF00038F908490A230122C91C33E000100240B6
:102F000000540040B0000020A08601006F12833AF8
:102F1000000C0140000000208DEDB5A0F7C6103F69
:102F20000000F03F00004E40009072408084EE4070
:102F300000080140003081400020874000D49240CA
:102F400000589640A03A00089A9999999999E93FB2
:102F50009A99593F002241463046FEF702F90A236A
:102F6000584901225848FEF78DFE0122414630465D
:102F7000FEF7F7F863E0206A78B3206A10B3206A9E
:102F800000F0BBFA514A524B00F006FB02460B46DA
:102F90000020504900F0EEF8A065E1654E4BA06DB1
:102FA0000022E16D00F0F8FA206661664B4B206E5E
:102FB0000022616E00F0F0FA0022494B00F0DAF8CE
:102FC000A066E1666069C8280ED925620122082141
:102FD0004448FEF7C6F8A5610BE0FFE70021216633
:102FE0006166A166E166EDE7002208213D48FEF733
:102FF000B8F834493448012250318438FDF714FEC2
:10300000616D4FF0000249454146304606D9FEF752
:10301000A8F82C490A230122891C05E0FEF7A1F833
:1030200028490A230122091F2748FEF72BFE012207
:1030300041463046FEF795F8C820FDF78BFF224841
:1030400000221146A030FDF7CFFB1F4826A1A0307B
:10305000FDF706FC1C48009700220421A030636D98
:10306000FDF7E8FB184801220021A030FDF7BCFB6A
:1030700015481EA1A030FDF7F3FB206E616E00F035
:103080000DFA0346104801220421A0300097FDF7F5
:10309000D1FB0D4800220A21A030FDF7A5FB0A480C
:1030A00013A1A030FDF7DCFBA06EE16E00F0F6F995
:1030B000034605200090044801220B21A030FDF7B3
:1030C000B9FBCBE504000020040100208DEDB5A084
:1030D000F7C6103F0000F03F00004E4000907240E5
:1030E0008084EE40000801406761000052504D00AE
:1030F00056414E544F43000021F00042A2F160526D
:10310000B2F5801F01F0004328BFD2F17F6C0BD9CC
:103110005FEA001C43EAC20242EB507018BF7047DE
:1031200028BF20F001007047B2F5801FBCBF1846D1
:1031300070474FEA410C1CF5001F02D2084600F010
:10314000AABC70B500F0D2FA00000089FFF7F6BF04
:103150004FF00040A0F580007047491058BFC1F102
:1031600040415B1058BFC3F140438B42EFF30080F6
:10317000704700002DE9C04130B4DFF8A0C23CEA3E
:10318000111418BF3CEA131400F0EC8081EA030527
:103190001CEA111444EAD57418BF1CEA131500F098
:1031A000C780A4EB05044FF0004545EAC12145EA7C
:1031B000C32341EA505143EA525304F17F749942C8
:1031C00004F500344FEAC0204FEAC22208BF904203
:1031D00000F09C804FEA13650FF24016765D4FEACF
:1031E000134506FB05F7C7F1807706FB07F74FEAA3
:1031F000D737A7FB03687642C8F58038A7FB06CE11
:1032000038BFA8F1010807FB08E64FF0000EA6FB47
:10321000028CE6FB03CEDCF1000CCEF1004E38BF91
:10322000AEF1010EA6FB0C584FF000074FF0000561
:10323000E6FB0E87A1FB08C6A0FB07CE16EB0E0629
:1032400045F10005E1FB076515F1E04E7EBFA4F5F1
:1032500080345FEA46066D4116F1800745F10005AE
:103260004FEA17274FEA066647EA0567A6F1DE46EA
:10327000B6F1805F4FEA15251FD9384624F0010CBE
:1032800005EBC471BCF1FE6F01EB0C1102D8F0BC70
:10329000BDE8008124425CBF01F5801E9EEAC47F28
:1032A00002D4F0BCBDE80081244238D4F0BCA1F1C6
:1032B000C041BDE8004100F067BA4FEAD22242EABD
:1032C00043524FEAD323A7FB02864FEAD02040EABD
:1032D000415007FB03661EEA0E0F4FEAD12105FBA2
:1032E000026658BFA6EB0056B6EB00564FEA520EE8
:1032F0004EEAC37E18EB0E0E56EB530EBDD518EBFF
:1033000002085E417F1C55F10005B6E74FF48015B9
:103310004FF000074FF000064FF00008ADE7F0BC9B
:103320004FF0000001F1C04101F00041BDE8008113
:1033300011EA0C1F0CEA131500D00CE013EA0C1F65
:1033400000F025804FF00000F0BC81EA030101F09D
:103350000041BDE80081F0BCBDE8004181EA030105
:1033600000F012BAF0BCBDE8004170B500F0BEF943
:10337000097EFC3E00F007B881EA03014FF000002F
:1033800001F00041704781EA030100F0FDB9F0BC93
:10339000BDE800414FF0000021497047FFFDFBF9F7
:1033A000F7F5F4F2F0EEEDEBE9E8E6E4E3E1E0DE78
:1033B000DDDBDAD8D7D5D4D3D1D0CFCDCCCBCAC8EA
:1033C000C7C6C5C4C2C1C0BFBEBDBCBBBAB9B8B711
:1033D000B6B5B4B3B2B1B0AFAEADACABAAA9A8A804
:1033E000A7A6A5A4A3A3A2A1A09F9F9E9D9C9C9BD2
:1033F0009A9999989797969595949393929191907D
:103400008F8F8E8E8D8C8C8B8B8A8989888887870D
:103410008685858484838382828181800000FF0782
:103420000000F87F51EA030C17D41CF5801F58BF29
:10343000BCF5801F00F10680994218BF704708BF95
:103440009042704707D711F5801F58BF13F5801FB2
:1034500019D499427047894270471CF5801F08D5DE
:10346000BCF5801FF7D58B4218BF704708BF82425A
:1034700070474FF4001C1CEB410F38BF1CEB430F8F
:1034800001D28B42704770B500F030F992244900A8
:103490004FF000514FF08053FFF75FBE4FEA4103FA
:1034A0004FEA5353A3F58063D3F11E03C8BFD3F192
:1034B000210C0CDD4FF0004242EAC12242EA505298
:1034C00032FA03FC8CEAE17CACEBE1707047102B24
:1034D000C4BF0020704703F5787CBCF1FF3F04D0E7
:1034E0006FF0004282EA2100704770B500F0FEF8EC
:1034F0004992248000207047F2E7B0FA80F310FA76
:1035000003F10AD0C3F11D0303F580634FEA415074
:103510004FEA035202EBD12170474FF00000704791
:1035200051EA030C17D41CF5801F58BFBCF5801F4F
:1035300000F10680994218BF704708BF904270475B
:1035400007D711F5801F58BF13F5801F19D4994272
:103550007047894270471CF5801F08D5BCF5801F55
:10356000F7D58B4218BF704708BF824270474FF4AF
:10357000001C1CEB410F38BF1CEB430F01D28B42E8
:10358000704770B500F0B2F8922449004FF0005136
:103590004FF08053FFF7E1BDDFF848C170B51CEA7A
:1035A000111E1EBF1CEA13159EEA0C0F95EA0C0FA4
:1035B00000F06F8081EA030423EA4C134EEAD47EC4
:1035C00021EA4C1141F4801143F48013AE44A1FB75
:1035D000024CA0FB0365AEF17F7E361955EB0C055E
:1035E000A1FB034C4CF10003A0FB021C16EB0C06E4
:1035F000654153F10003094218BF46F0010613F478
:10360000007F0BD14FEA03314FEA0530340341EA22
:10361000155140EA16506FF003020AE04FEAC32149
:103620004FEAC520F40241EA555140EA56506FF086
:10363000020202EB2E4201EB025585EACE710AD05E
:103640005FEA440C18BF24F0004450F1000041F13F
:10365000000120EAD47040F2FE7C624500D270BDC9
:10366000A84214BF4FF080444FF04044002E08BFE2
:103670000024BEF1806FA8BFA1F1C041BDE8704039
:1036800080F282804FF0000001F1C04101F0004162
:1036900070479EEA0C0F0CEA131518BF95EA0C0F41
:1036A00006D04FF0000081EA030E0EF0004170BD1D
:1036B00000F01CF88900013E00F007B800F009B8DE
:1036C0004FEA430C5FEA5C5C08D081EA030100F03A
:1036D0005BB84FEA410C5FEA5C5CF6D14FF000004A
:1036E000014970470000FF070000F87F0EF1020E4D
:1036F0002EF0030E5EF8046B364205D4012A43EB2C
:10370000030515F5001F12D8012841EB010C1CF52B
:10371000001F0CD80ED14FEAD17C15F5001F0CEB21
:103720004C0C0CF1020C08BF4CEBD37C04E04FF0C6
:10373000080C01E04FEAD37C0CEB4C0526FA05F6A9
:1037400006F00706B6F1040C06D20EEB860CBDE8B7
:1037500070404CF0010C6047DFE80CF0090B0202EE
:103760004FF000414FF00000A1F5002170BD194657
:103770001046012851EB010418BFD4F5001484BF92
:10378000002001F0004170BD0808A0F500114FEACB
:103790003101704753EA010C17D41CF5801F58BF44
:1037A000BCF5801F00F106808B4218BF704708BF30
:1037B0008242704707D713F5801F58BF11F5801F4D
:1037C00019D48B4270479B4270471CF5801F08D567
:1037D000BCF5801FF7D5994218BF704708BF9042CB
:1037E00070474FF4001C1CEB430F38BF1CEB410F1C
:1037F00001D2994270470FB40CBC03BCFFF7C1BEA5
:1038000043004FEAD30C4FEA3C0C43401FBF400734
:103810000CF1605113F0FE4F70471CF0006F03D1A4
:1038200000200CF0004170470CF0004343EA507058
:1038300010B540EACC0000F0E8F800BF00000092AC
:103840004FEA0001FFF7A0BF4FF000414FF000002A
:10385000A1F500217047401058BFC0F14040491009
:1038600058BFC1F140418142EFF300807047000032
:1038700010F0004148BF4042B0FA80F310FA03F262
:10388000C3F19D030BD051EAC35101EB1220530643
:1038900038BF704700F1010008BF20F001007047F9
:1038A00050EA010C00F113801CF5000F58BFBCF565
:1038B000000F01D48842704707D710F5000F58BF9A
:1038C00011F5000F15D488427047894270471CF5E6
:1038D000000F04D5BCF5000FF7D5814270474FF0BB
:1038E000807C1CEB400F38BF1CEB410F01D28142A2
:1038F000704710B500F089F8922449004FF000504D
:103900004FF08051FFF7A7BF4FF47F0C1CEAD01295
:103910001EBF1CEAD11392EA0C0F93EA0C0F00F0C1
:10392000478090EA010F48BF42F480724FF0004C8C
:103930004CEA00204CEA012102EB0302A0FB011338
:10394000A2F50002002918BF43F001035B0028BF65
:103950004FEA330342EB22425FEA132C4CEBC25096
:103960002EBFBCEB436FB2F57C0F70474FEA036C80
:10397000BCF1004F08BF20F00100B2F57C0F38BF4A
:1039800070470BD582F0FF0212F5803FC8BF704729
:1039900000F1C040D8BF00F00040704700F5000CB7
:1039A0005FEA4C0C48BF7047B0F1C04000F073B8FC
:1039B00090EA010F0CEAD11348BF42F480726245CD
:1039C00038BF634504D280EA010000F00040704730
:1039D00010B500F01AF800BF8900013E00F007B8EA
:1039E00000F009B85FEA410C5FEA1C6C08D080EA7D
:1039F000010000F050B85FEA400C5FEA1C6CF6D1A1
:103A00004FF00040A0F5800070470EF1020E2EF03E
:103A1000030E5EF8044B244204D44FEA4102B2F193
:103A20007F4F11D84FEA4003B3F17F4F0CD80ED12E
:103A30004FEAD07CB2F17F4F0CEB4C0C0CF1020C36
:103A400008BF4CEBD17C04E04FF0080C01E04FEADA
:103A5000D17C0CEB4C0324FA03F404F00704B4F11A
:103A6000040C06D20EEB840CBDE810404CF0010CA7
:103A70006047DFE80CF0070802024FF00040A0F5B5
:103A8000800010BD0846420018BFD2F1807288BF86
:103A900000F0004010BDFF2141EAD050C005704742
:103AA00026020000E4020000B504000096050000B4
:103AB000010202030405060708090A0B0C0D0E0F8C
:103AC00010100000000000000000010203040607BF
:103AD00008090000000001020304040000080000BF
:103AE0000000000000020001000010000C3B000874
:103AF0000000002080000000280100088C3B000826
:103B000080000020D80700004401000800010204E2
:103B10000506070000000000000000000000000093
:103B20000000000000000000010000000000000094
:103B30000000000000000000000000000000000085
:103B40000000000000000000000000000000000075
:103B50000000000000000000000000000000000065
:103B60000000000000000000000000000000000055
:103B70000000000000000000000000000100000044
:0C3B8000100000000000000000127A009D
:04000005080000ED02
:00000001FF
