:020000040800F2
:10000000B020002089010008B31A00086D1700080D
:10001000B11A00088F020008CB2100080000000080
:10002000000000000000000000000000F91D0008B2
:100030009102000800000000B51A0008FB1D00082E
:10004000A3010008A3010008A3010008A301000800
:10005000A3010008A3010008A3010008A3010008F0
:10006000A3010008A3010008A3010008A3010008E0
:10007000A3010008A3010008A3010008A3010008D0
:10008000A3010008A3010008A3010008A3010008C0
:10009000A3010008A3010008A3010008A3010008B0
:1000A000A3010008A3010008A3010008A3010008A0
:1000B000A3010008611E0008A3010008A3010008B5
:1000C000A3010008A3010008A3010008A301000880
:1000D000B91A0008A3010008A3010008A301000841
:1000E000A3010008A3010008A301000800F002F822
:1000F00000F03AF80AA090E8000C82448344AAF188
:100100000107DA4501D100F02FF8AFF2090EBAE885
:100110000F0013F0010F18BFFB1A43F0010318473B
:10012000E8B7000008B80000103A24BF78C878C1CA
:10013000FAD8520724BF30C830C144BF04680C60ED
:10014000704700000023002400250026103A28BF35
:1001500078C1FBD8520728BF30C148BF0B60704739
:100160001FB51FBD10B510BD00F058F81146FFF7C0
:10017000F7FF02F03BF800F076F803B4FFF7F2FF68
:1001800003BC00F07DF8000009488047094800479B
:10019000FEE7FEE7FEE7FEE7FEE7FEE7FEE7FEE737
:1001A000FEE7FEE704480549054A064B7047000094
:1001B0005D1E0008ED000008B01A0020B0200020ED
:1001C000B01C0020B01C00204FF0000200B5134608
:1001D00094469646203922BFA0E80C50A0E80C5067
:1001E000B1F12001BFF4F7AF090728BFA0E80C5018
:1001F00048BF0CC05DF804EB890028BF40F8042B11
:1002000008BF704748BF20F8022B11F0804F18BF7D
:1002100000F8012B7047704770477047754600F033
:100220002BF8AE4605006946534620F00700854688
:1002300018B020B5FFF7B6FFBDE820404FF000062C
:100240004FF000074FF000084FF0000B21F00701BE
:10025000AC46ACE8C009ACE8C009ACE8C009ACE801
:10026000C0098D46704710B50446AFF300802046A4
:10027000BDE81040FFF781BF004870474C1A0020CE
:1002800001491820ABBEFEE7260002007047FEE7DA
:100290007047000010B590F821100024022903D007
:1002A0000421816301243DE001680A6822F00E0206
:1002B0000A6001680A6822F001020A601A4A0168AD
:1002C000914201D1012121E0174A1432914201D11A
:1002D00010211BE0144A2832914201D1891515E002
:1002E000114A3C32914201D189140FE00E4A50323A
:1002F000914202D14FF4803108E00B4A64329142BE
:1003000002D14FF4801101E04FF08071064A083AA3
:100310005160012180F82110002180F82010416BEC
:1003200001B18847204610BD080002402DE9F84F72
:10033000DFF8B8910024A9F1040B23460F2709F137
:10034000040AABF1040EC9E00125A5402A40AA42E7
:100350007DD1674ED1F804C0ACEB0608B44532D06D
:1003600014DCBCF1030F3AD009DCBCF1000F2AD039
:10037000BCF1010F1CD0BCF1020F31D11DE0BCF16A
:10038000110F17D0BCF1120F2AD119E0B8F5881F50
:1003900019D006DCB8F5803F15D0B8F5801F1FD105
:1003A00011E0B8F5001F0ED0B8F5041F18D10AE00F
:1003B000CB6815E0CB681B1D12E0CB6808330FE05B
:1003C000CB680C330CE08B682BB1012B4FF008038A
:1003D00003D0456104E0042302E0056100E000234E
:1003E000FF2A01D8064601E000F104064FEA840521
:1003F00001D9A5F12005D6F8008007FA05FC28EA06
:100400000C0803FA05F548EA0508C6F800804D68AF
:10041000ED0062D5374DAE6946F00106AE61AD69BB
:1004200024F0030605F001050095334D06EB050C9D
:10043000DCF80850A607360F07FA06F825EA080583
:10044000DFF8B880404503D14FF0000817E044E0E2
:10045000DFF8AC80404502D14FF001080FE0DFF833
:10046000A480404502D14FF0020808E0DFF89880F0
:10047000404502D14FF0030801E04FF0040808FAAC
:1004800006F848EA0508CCF808804D68D9F80060FD
:10049000ED024D4601D5164300E096432E604D68AF
:1004A000DAF80060AD02554601D5164300E09643E8
:1004B0002E604D68DBF80060AD035D4601D5164344
:1004C00000E096432E604D68DEF80060ED0375464F
:1004D00001D5164300E096432E60641C0D682A4641
:1004E000E5407FF431AFBDE8F88F0000080401401B
:1004F00000001110001002400000014000080140FF
:10050000000C014000100140001401400AB10161DB
:1005100070470904FBE7000001488068704700004D
:100520000C00002002488168027811448160704705
:100530000C000020074810B5016841F0100101606F
:10054000032000F075F80F2000F006F800F024F802
:10055000002010BD0020024070B50D4D04464FF440
:100560007A712878B1FBF0F00A490968B1FBF0F024
:1005700000F07BFC48B9102C07D200222146501E07
:1005800000F036F800206C6070BD012070BD0000E6
:100590000C000020180000200C4808B5816941F0CB
:1005A00001018161816901F001010091C16941F09E
:1005B0008051C161C06900F08050009004484168DA
:1005C00021F0E06141F00071416008BD001002407F
:1005D00000000140002809DB00F01F0201219140CA
:1005E0004009800000F1E020C0F8001170470000D1
:1005F000F0B40E4B1B680C46C3F30223C3F107058E
:10060000042D00D90425191D072901D2002300E07B
:10061000DB1E012606FA05F1491E214099409E4045
:10062000761E16403143F0BC01F0D0BD0CED00E069
:10063000064900F0070208684FF6FF03184040EA39
:100640000220034A10430860704700000CED00E0F0
:100650000000FA052DE9F0470F46050061D0434E32
:10066000306800F00700B84209D2306820F0070077
:1006700038433060306800F00700B84251D1286834
:100680003B4C810712D5400703D5606840F4E06019
:1006900060602878000703D5606840F460506060AF
:1006A0006068A96820F0F000084360602878C007FF
:1006B00028D06868012810D02168022810D0890746
:1006C00000292EDA616821F0030101436160FFF720
:1006D00023FF804641F288390DE021688903EFE766
:1006E0008901EDE7FFF718FFA0EB0801494502D9A2
:1006F0000320BDE8F0876068696800F00C00B0EB8B
:10070000810FEFD1306800F00700B8420BD9306894
:1007100020F0070038433060306800F00700B8422E
:1007200001D00120E5E72878400705D56068E96831
:1007300020F4E060084360602878000706D5606810
:10074000296920F4605040EAC100606000F018F8A8
:100750006168084AC1F30311515CC840064908604A
:1007600006480068FFF7F8FE0020C2E700200240BC
:1007700000100240F6B80008180000201000002009
:100780000E4A51680E4801F00C03042B11D0082BBF
:100790000FD10C48C1F38343C903C05C0AD551682B
:1007A000084AC1F34041921E515C054A5043B0FBD8
:1007B000F1F07047044948437047000000100240C0
:1007C00000127A00E6B8000800093D002DE9F84F54
:1007D000040070D02078C04DC00749D06868C0F3CD
:1007E0008100012807D06868C0F38100022809D180
:1007F0006868C00306D52868800339D5606800287A
:10080000E7D035E06068B0F5803F0BD010B1B0F5AF
:10081000A02F11D0286820F480302860286820F4A8
:10082000802002E0286840F480302860606890B141
:10083000FFF772FE06460AE0286840F48020286030
:10084000F0E700BFFFF768FE801B642873D82868B4
:100850008003F7D50CE0FFF75FFE064605E000BF1A
:10086000FFF75AFE801B6428F0D828688003F7D46D
:1008700020789A4E80074FF001094FF0000839D5D3
:10088000686810F00C0F07D06868C0F38100022878
:1008900009D16868C00306D42868800714D5206988
:1008A000012808D110E02069B0B1C6F80090FFF728
:1008B00033FE074605E00AE1FFF72EFEC01B0228C3
:1008C000C4D828688007F7D52868616920F0F80047
:1008D00040EAC10028600DE0C6F80080FFF71CFE6A
:1008E000074604E0FFF718FEC01B022823D828683B
:1008F0008007F7D4207800072CD57948A169D9B1B1
:10090000C0F80090FFF708FE074604E0FFF704FE7A
:10091000C01B02280FD8686A8007F7D571484FF4CA
:10092000FA510068B0FBF1F0009000BF0098411E42
:100930000091FAD20EE080E0C0F80080FFF7ECFDF5
:10094000074604E0FFF7E8FDC01B022875D8686A77
:100950008007F7D42078400760D5E8690027C000F9
:1009600008D4E86940F08050E861E869012700F0A8
:10097000805000905C480168C90513D40168834623
:1009800041F480710160FFF7C7FD824606E000BFB9
:10099000FFF7C2FDA0EB0A0064284ED8DBF8000088
:1009A000C005F5D5E06801280AD008B1052813D0A4
:1009B000286A20F001002862286A20F0040002E082
:1009C000286A40F001002862E06841F2883B98B153
:1009D000FFF7A2FD82460BE0286A40F0040028627F
:1009E000EEE700BFFFF798FDA0EB0A0159455AD882
:1009F000286A8007F6D50CE0FFF78EFD824605E0F9
:100A0000FFF78AFDA0EB0A0159454CD8286A8007F8
:100A1000F6D41FB1E86920F08050E861E06988B33E
:100A20006968C1F38101022944D00228C6F86080B8
:100A300004D0FFF771FD044638E034E0FFF76CFDA9
:100A4000074604E0FFF768FDC01B02282BD8286882
:100A50008001F7D4206AB0F5803F05D16868A168AD
:100A600020F4003008436860D4E90801084369684D
:100A700021F4741108436860C6F86090FFF74CFDDC
:100A8000044606E025E000BFFFF746FD001B0228F4
:100A900009D828688001F7D51BE000BFFFF73CFDAF
:100AA000001B022802D90320BDE8F88F28688001C6
:100AB000F4D40EE00128F7D06868226A00F480318F
:100AC000914204D1616A00F47010884201D0012083
:100AD000EAE70020E8E70000001002400000424280
:100AE000800442421800002000700040704700005F
:100AF00038B50446006842688168C9434B0606D58C
:100B0000CB0704D1D3435B0601D4216C05E08B07EE
:100B100008D4D3431B0605D4616C01B02046BDE860
:100B2000304008478B0601D54B0646D4D3439B067D
:100B300043D44B060AD494F85130032B3ED0636D56
:100B400043F004036365C36883680093890609D48E
:100B5000616D41F00101616581680091016821F0DA
:100B600040010160606D002827D02068416821F0B5
:100B7000E0014160012084F85100900722D02068F4
:100B8000416821F003014160104DE06C40B14563C4
:100B9000E06CFFF77FFB18B1606D40F040006065CE
:100BA000A06C002809D04563A06CFFF773FB0028F8
:100BB00003D0606D40F04000606538BDC16880685A
:100BC000009038BD2046FFF791FF38BD611C00083A
:100BD00070B5040009D0606A002540B125616561E7
:100BE000A56294F8510040B10CE0012070BD60682E
:100BF000B0F5827FF4D0E561F2E784F850502046EA
:100C000000F040F8022084F851002068016821F0CB
:100C100040010160A088218900F4827001F4044140
:100C20000843A18901F400610843217C01F002011D
:100C30000843217D01F001010843218B01F400717B
:100C40000843217F01F03801084394F8201001F097
:100C500080010843218D01F4005108432168086098
:100C6000A069042101EA1040216848602068C16938
:100C700021F40061C1616565012084F85100002004
:100C800070BD000010B586B0002100910191029165
:100C900003910068184988422BD11848C16941F472
:100CA0008041C161C16901F480410491816941F0D1
:100CB000080181618069124C00F0080004904FF433
:100CC0003040009069462046FFF730FB4FF48040EB
:100CD0000090022001900320039069462046FFF710
:100CE00025FB002211462420FFF782FC2420FFF779
:100CF00071FC06B010BD000000380040001002403A
:100D0000000C014030B4134690F85120012A27D13D
:100D1000846804221CB94568B5F5827F17D0E1B11B
:100D2000DBB190F85050012D1AD0012580F85050B9
:100D300080F851200022426581638387C387026364
:100D40008286C2864264C16861B116490BE080F8B0
:100D5000512030BC0A4600F039B8012030BC704741
:100D60000220FBE710490164B4F5004F09D1016886
:100D70000B6823F040030B6001680B6823F4804389
:100D80000B6001680B685B0603D40B6843F04003FB
:100D90000B6080F850200068416841F060014160BC
:100DA0000020DBE7011D0008211D00080068044940
:100DB000884204D1012203490348FFF7A3BF7047CB
:100DC00000380040000000201C19002030B590F8C9
:100DD00051404568012C06D0B5F5827F24D1856845
:100DE00015BB042C20D1E9B1E2B1DBB190F8504041
:100DF000012C19D0012480F8504090F85140042C67
:100E000002D0052480F851400024446501638386A4
:100E1000C38682638387C387C16839B10E49016481
:100E20000E4906E0012030BD022030BD0C490164AE
:100E30000C49416401680A68520603D40A6842F00A
:100E400040020A6080F850400068416841F0E001CB
:100E50004160002030BD0000C51A0008251B0008B5
:100E6000F51A0008551B0008704710B5401EB0F178
:100E7000807F01D3012010BD4FF0E02460610F217D
:100E8000601701F0A3F90020A06107202061002075
:100E900010BD7047704710B590F83C20012A22D051
:100EA000012280F83C20CA688C6822F440722243F8
:100EB0004C6822F4806222430C6822F400622243D0
:100EC0000C6922F4805222434C6922F400522243DE
:100ED000C969002322F480420A4301684A6480F809
:100EE0003C30002010BD022010BD000070B590F80D
:100EF0003C20012A26D0012480F83C40022280F8C0
:100F00003D2003685A689D6822F070060A683243E3
:100F10005A600D4B02689A4208D0B2F1804F05D05A
:100F20000A4B9A4202D00A4B9A4204D1496825F0F2
:100F300080031943916080F83D40002180F83C1007
:100F4000084670BD022070BD002C01400004004026
:100F50000008004010B5040003D094F83D0010B123
:100F600007E0012010BD002084F83C00204600F07E
:100F70001FF8022084F83D00211D206800F076FF54
:100F8000012084F8460084F83E0084F83F0084F88D
:100F9000400084F8410084F8420084F8430084F85B
:100FA000440084F8450084F83D00002010BD000096
:100FB00000B585B0002100910191029103911E4A74
:100FC00001681E48914217D1816941F40061816135
:100FD000816901F400610491816941F0040181613A
:100FE0008069694600F00400049050150090144890
:100FF000FFF79CF905B000BDB1F1804F13D0114A45
:101000009142F7D1C16941F00201C161C06900227A
:1010100000F00200049001211D20FFF7E9FA1D20D5
:10102000FFF7D8FAE6E7C16941F00101C161C06983
:1010300000F001000490DDE7002C014000100240A8
:10104000000801400004004090F83D10012901D043
:1010500001207047022180F83D100168CA6842F003
:101060000102CA6000680B49884208D0B0F1804F85
:1010700005D00949884202D00849884204D18168D4
:1010800001F00701062903D0016841F00101016068
:1010900000207047002C0140000400400008004080
:1010A00070B5044690F83C000025012817D00126B1
:1010B00084F83C60022084F83D002068826822F0B9
:1010C000770222F47F4282600868502838D00DDC15
:1010D00020284FD005DC90B3102811D14AE002201F
:1010E00070BD302846D040280AD13BE060282FD080
:1010F00070280DD0B0F5805F03D0B0F5005F12D03E
:10110000012584F83D60002084F83C00284670BD2D
:10111000CB68D1E90121206800F0F1FE20688168E8
:1011200041F0770109E0CB68D1E90121206800F0A6
:10113000E6FE2068816841F480418160E1E719E0C2
:10114000CA684968206800F0D5FF5021206806E091
:10115000CA684968206801F00BF86021206800F037
:10116000D8FECEE7CA684968206800F0C3FF402176
:101170002068F4E7226801461046F0E770472DE941
:10118000F041054690F83C0000260C46012810D09E
:10119000012085F83C0072B1042A1CD0082A2CD00A
:1011A0000C2A50D00126002085F83C003046BDE8CE
:1011B000F0810220FBE7D4E90012E368286800F020
:1011C000ABFF2868816921F00C0181612868816981
:1011D000A26811430FE0D4E90012E368286800F028
:1011E000D9FF2868816921F440618161286881699B
:1011F000A26841EA02218161D5E72868D4E9002C80
:10120000277B036A016A21F480710162C16923F4BA
:10121000007321F0030141EA0C0121F0F00C3907C1
:101220004FF400774CEA116107EA02221A43C161C8
:1012300002622868C16921F00C01C1612868C16996
:10124000A26811432BE02868D4E90021E768036A0B
:10125000D0F820C02CF4805CC0F820C0D0F81CC0AE
:1012600023F400532CF4407C4CEA012121F4704C0F
:101270004FF6FF7101EA07314FF4005741EA0C01C4
:1012800007EA02321A43C16102622868C16921F487
:101290004061C1612868C169A26841EA0221C16157
:1012A00081E710B5040003D094F83D0010B107E0C9
:1012B000012010BD002084F83C00204600F01EF8FC
:1012C000022084F83D00211D206800F0CFFD0120A0
:1012D00084F8460084F83E0084F83F0084F840001B
:1012E00084F8410084F8420084F8430084F8440004
:1012F00084F8450084F83D00002010BD70472DE9BA
:10130000F04104460068C66805694FF00007A90768
:1013100013D5B10711D5F91E01610120207720688E
:1013200080698007204602D0FFF728FF04E000F024
:10133000B1F8204600F043F92777680716D5700703
:1013400014D521686FF0040008610220207720681E
:10135000806910F4407F204602D0FFF70FFF04E0C1
:1013600000F098F8204600F02AF92777280715D5CD
:10137000300713D521686FF008000861042020773A
:101380002068C0698007204602D0FFF7F7FE04E01E
:1013900000F080F8204600F012F92777E80616D50D
:1013A000F00614D521686FF010000861082020773E
:1013B0002068C06910F4407F204602D0FFF7DEFEAF
:1013C00004E000F067F8204600F0F9F82777E80716
:1013D00008D0F00706D021686FF0010008612046B0
:1013E00000F03CF9280608D5300606D521686FF0D4
:1013F000800008612046FFF74CFD680608D570069E
:1014000006D521686FF040000861204600F0ADF974
:10141000A8060AD5B00608D521686FF0200008613B
:101420002046BDE8F041FFF735BDBDE8F081000082
:1014300010B586B0002100910191029103910368DB
:10144000114902221148B3F1804F13D0104CA3422E
:101450000ED18B6943F004038B61896901F00401AB
:101460000491C021CDE9001269460392FEF75EFFA8
:1014700006B010BD8B6943F004038B61896901F0EC
:10148000040104910F21EDE7001002400008014023
:1014900000040040704770B5044690F83C000026F8
:1014A0000D4601280FD0012084F83C006AB1042ABF
:1014B0001DD0082A2FD00C2A3FD00126002084F806
:1014C0003C00304670BD022070BD206800F02AFD4F
:1014D0002068816941F0080181612068816921F0FB
:1014E00004018161206881692A69114311E0206843
:1014F00000F040FD2068816941F40061816120684D
:10150000816921F480618161206881692A6941EAE9
:1015100002218161D2E7206800F058FD2068C1698E
:1015200041F00801C1612068C16921F00401C16175
:101530002068C1692A69114311E0206800F072FD3A
:101540002068C16941F40061C1612068C16921F46A
:101550008061C1612068C1692A6941EA0221C161D3
:10156000ACE710B5040003D094F83D0010B107E0DB
:10157000012010BD002084F83C00204600F01EF839
:10158000022084F83D00211D206800F06FFC01203E
:1015900084F8460084F83E0084F83F0084F8400058
:1015A00084F8410084F8420084F8430084F8440041
:1015B00084F8450084F83D00002010BD7047704756
:1015C00010B50446022249B104290ED0082913D0CF
:1015D00094F84100012816D0012010BD94F83E0077
:1015E0000128F9D184F83E200FE094F83F0001284B
:1015F000F2D184F83F2008E094F840000128EBD1B4
:1016000084F8402001E084F841200122206800F0A5
:1016100069FC0F492068884203D1426C42F40042C1
:1016200042642068884208D0B0F1804F05D0094953
:10163000884202D00849884204D1816801F007013C
:10164000062903D0016841F001010160002010BDAE
:10165000002C014000040040000800402DE9F04744
:10166000DFF8A0A0284B5046BAF806C01C1D8088A1
:101670004FF08041BCF1010F15D0DFF89080BCF134
:10168000020F08F59642A2F5485502F5C856A2F594
:10169000C85702F5485910D0BCF1030F0DD0BCF16A
:1016A000040F0AD01CE01A4A32F810204A638A63F9
:1016B000CA630A641A60226012E038F810C0C1F8E8
:1016C00034C032F810208A6335F81020CA6336F827
:1016D00010200A6437F81010196039F810102160D2
:1016E000BAF80A205146104480B2AAF80400BAF8A9
:1016F0000220904204D3002088804881AAF8080084
:10170000BDE8F0870000002034040040E422000817
:101710001C00002070B5044690F83C00012812D04F
:10172000012584F83C50022084F83D00204600F05A
:101730009BFC01004FF0000007D084F83D5084F876
:101740003C00012070BD022070BD2168CA6822F0F3
:101750004002CA602168CA6822F48042CA6084F8E4
:101760003D5084F83C00002070BD7047FEE700004B
:1017700070B586B00024204800940194029403942C
:10178000816941F010018161816901F010010491CA
:10179000816941F020018161816901F0200104919A
:1017A000816941F004018161816901F004010491C2
:1017B000816941F0080181618069104E00F00800E4
:1017C0004FF400550490002229463046FEF79EFE55
:1017D0000120CDE90050022569463046CDE9024599
:1017E000FEF7A4FD38208DE8310069460448FEF775
:1017F0009DFD06B070BD00000010024000100140C9
:10180000000C01400C4810B50A49016000214160FC
:101810008160C160016141618161016241628162F7
:101820000A21C162FFF7D4F9002801D072B6FEE7A1
:1018300010BD0000003800401C19002010B59AB0FF
:101840000024139414941594169417941C2108A83A
:101850001894FEF7B9FC0F94109411942021684657
:101860001294FEF7B1FC31482F49C0E90014402121
:10187000816041F28141C0E9031444618461FFF752
:1018800069FB08B172B6FEE74FF48050139013A9BC
:101890002648FFF705FC08B172B6FEE72348FFF7BC
:1018A00060FE08B172B6FEE72048FFF7FAFC08B107
:1018B00072B6FEE7179417A91C481894FFF716FB99
:1018C00008B172B6FEE76020CDE908040A940B94D3
:1018D0000C940D94002208A914480E94FFF7DBFD28
:1018E00008B172B6FEE70120CDE90F401194042241
:1018F0000FA90E481294FFF742FC08B172B6FEE73A
:1019000000944FF40050CDE90440029401940394F4
:10191000694606480794FFF7BEFA002801D072B660
:10192000FEE71AB010BD0000002C01407419002021
:1019300030B58FB0142107A8FEF746FC00240C94A4
:101940001C2168460D94FEF73FFC2C484FF0804167
:10195000C0E900142021816041F28141C0E90314F3
:1019600080218161FFF7F6FA08B172B6FEE72348DD
:10197000FFF7F7FD08B172B6FEE70620CDE90704D0
:1019800007A91E48FFF7C6FE08B172B6FEE70C9421
:101990000CA91A480D94FFF7A9FA08B172B6FEE730
:1019A0006025CDE90054029400226946134804944E
:1019B000FFF771FD08B172B6FEE770240422694694
:1019C0000E480094FFF767FD08B172B6FEE70822E3
:1019D00069460A480095FFF75EFD08B172B6FEE75A
:1019E0000C22694605480094FFF755FD08B172B610
:1019F000FEE70248FFF71CFD0FB030BDBC19002008
:101A000010B58EB0142107A8FEF7DEFB00240C945D
:101A10001C2168460D94FEF7D7FB24482249C0E9F3
:101A200000142021816041F28141C0E9031480212A
:101A30008161FFF78FFA08B172B6FEE71B48FFF726
:101A400090FD08B172B6FEE70620CDE9070407A9AC
:101A50001648FFF75FFE08B172B6FEE70C940CA9BA
:101A600012480D94FFF742FA08B172B6FEE7602003
:101A7000CDE900040294002269460C480494FFF763
:101A80000AFD08B172B6FEE7702000900422694694
:101A90000648FFF700FD08B172B6FEE70348FFF7FE
:101AA000C7FC0EB010BD000000040040041A002066
:101AB000FEE7FEE7704700000148FFF719B8000095
:101AC0001C1900200168C968826B1180816B891C18
:101AD0008163C18F491EC187C18F002909D1016867
:101AE0004A6822F040024A60C18E002901D100F00C
:101AF00049B870470168097B826B1170816B491C82
:101B00008163C18F491EC187C18F002909D1016836
:101B10004A6822F060024A60C18E002901D100F0BB
:101B200031B87047016B02680988D160016B891C6C
:101B30000163C18E491EC186C18E002909D1016889
:101B40004A6822F080024A60C18F002901D100F06A
:101B500019B87047016B026809781173016B491C51
:101B60000163C18E491EC186C18E002909D1016859
:101B70004A6822F080024A60C18F002901D100F03A
:101B800001B8704738B50446214845F6C051006891
:101B9000B0FBF1F0642148430090FEF7BDFC024623
:101BA0002068416821F020014160009888B1401E02
:101BB0000090206880688007F7D56421204600F0F7
:101BC00085F818B1606D40F020006065A06828B10C
:101BD00008E0606D40F020006065EEE72068C168B5
:101BE00080680090616D012029B184F85100204681
:101BF000FEF77CFF38BD94F8511084F85100042999
:101C0000204602D0FFF730F938BDFFF7CFF838BDD6
:101C10001800002038B504460068416821F06001D2
:101C20004160FEF779FC02466421204600F020F86E
:101C300018B1606D40F020006065A06818B9206898
:101C4000C16880680090012084F85100606D002810
:101C5000204602D0FEF74AFF38BDFFF7A7F838BD8F
:101C600010B5406A0021C187C186FEF73FFF10BD55
:101C7000F8B5044640684FF48273984217D1A068C3
:101C80004FF48065B0F5004F01D0A8420FD1206815
:101C9000066826F0400606606068984207D1A06892
:101CA000A84204D100920B460022012103E00092D9
:101CB0000B4600228021204600F042F8002804D084
:101CC000606D40F0200060650320F8BDF8B5154652
:101CD0000E460B46009204460122022100F030F825
:101CE00040B93346002280212046009500F028F8B4
:101CF000002804D0606D40F0200060650320F8BD2E
:101D00000168C968826B1180816B891C8163C18FF6
:101D1000491EC187C18F002901D1FFF77BBF7047E2
:101D20000168097B826B1170816B491C8163C18FD3
:101D3000491EC187C18F002901D1FFF76BBF7047D2
:101D40002DE9F8431E46914688460446089DFEF755
:101D5000E3FB401B351AFEF7DFFB0746254800680A
:101D6000C0F3CB30684338E0701C37D0FEF7D4FBAB
:101D7000C01BA84203D215B1009860B32CE02068C4
:101D8000416821F0E00141606068B0F5827F0BD1CD
:101D9000A068B0F5004F02D0B0F5806F04D1206884
:101DA000016821F040010160A06AB0F5005F09D12F
:101DB0002068016821F4005101602068016841F445
:101DC00000510160012084F85100002084F8500087
:101DD0000320BDE8F8830025401E0090206881683C
:101DE00038EA010004D000214945BDD10020F0E7C8
:101DF0000121F9E7180000207047FEF793BB30B5CA
:101E00008FB028216846FEF7DFF914210AA8FEF7F3
:101E1000DBF901210804CDE9001000240294022519
:101E20000491CDE907504FF4E01009906846FEF7A1
:101E3000CDFC08B172B6FEE70F20CDE90A054FF4DC
:101E40008060CDE90C4002210AA80E94FEF702FC46
:101E5000002801D072B6FEE70FB030BD7047000019
:101E60000148FFF74CBA0000041A0020F0B50268E0
:101E7000194B1A4C1A4D4FF08047984205D0B84282
:101E800003D0A04201D0A84203D122F070064A68D4
:101E90003243984205D0B84203D0A04201D0A842B4
:101EA00003D122F44074CA6822434C6922F08002B4
:101EB000224302608A68C2620A688262984201D143
:101EC00009690163012141610169C90703D0016901
:101ED00021F001010161F0BD002C0140000400402F
:101EE0000008004010B501F01F030121046A994069
:101EF0008C430462016A9A401143016210BD10B51F
:101F0000846842EA032224F47F440A432243826025
:101F100010BD826822F070020A4342F0070181601E
:101F20007047000030B5036A026A22F001020262C3
:101F30004268846924F073050C682C4323F0020581
:101F40008B682B430A4DA8420BD123F00805CB68C0
:101F500022F440722B434D6923F0040315438A6930
:101F60002A434260846149684163036230BD0000D6
:101F7000002C014030B5026A036A23F010030362AB
:101F8000436884690D6824F4E64444EA05248D68B6
:101F900022F0200242EA05120B4DA8420ED1CD6874
:101FA00022F0800242EA05124D6923F4406343EABD
:101FB00085038D6922F0400243EA85034360846112
:101FC00049688163026230BD002C014030B5036A6C
:101FD000026A22F4807202624268C46923F40073C8
:101FE00024F073050C682C438D6843EA05230C4DDF
:101FF000A8420ED1CD6823F4006343EA05234D695E
:1020000022F4405242EA05128D6923F4806342EAC9
:1020100005124260C4614968C163036230BD0000BB
:10202000002C014030B5046A026A22F48052026238
:102030004268C3690D6823F4E64343EA05238D68CB
:1020400024F4005444EA0534064DA84204D14D69F5
:1020500022F4804242EA85124260C3614968016409
:10206000046230BD002C014070B5036800249A68FA
:1020700022F070054A682A4322F007050A682A43BD
:102080009A604A6812F00F0F31D11211082A2ED22D
:10209000DFE802F02E2E2E2E0B2127040B69D1E94A
:1020A00002210068FFF72BFF22E00A68052A10D002
:1020B0000268136A156A25F00105156202689569C0
:1020C000096925F0F00545EA011191610068036294
:1020D0000EE0012070BD0A698968006800F00AF806
:1020E00006E00A698968006800F042F800E001240F
:1020F000204670BD10B5036A046A24F0010404622E
:10210000846924F0F00444EA021423F00A020A432A
:102110008461026210BD000070B5056A046A24F093
:102120000104046284690F4EB04208D0B0F1804FC0
:1021300005D00D4EB04202D00C4EB04203D124F077
:102140000304144301E044F001041A0724F0F004EE
:1021500044EA126225F00A0301F00A011943826180
:10216000016270BD002C01400004004000080040E6
:1021700010B5036A046A24F010040462846923F031
:10218000A00324F4704444EA023243EA011182615C
:10219000016210BD30B5046A056A25F010050562BC
:1021A000856925F4407545EA022222F470454FF610
:1021B000FF7202EA033224F0A0032A43A02404EAB7
:1021C000011119438261016230BDFEE70907090E62
:1021D000002804DB00F1E02080F80014704700F0D4
:1021E0000F0000F1E02080F8141D7047FEF7A2F9FF
:1021F000FFF705FEFFF7BCFAFFF79AFBFFF700FCBD
:10220000FFF71CFBFFF7FEFA00213248FFF7D8F971
:1022100030484830FEF718FF2E489030FEF714FF84
:102220002C4800214830FFF7CBF92A4804214830D8
:10223000FFF7C6F9274808214830FFF7C1F92548BC
:102240000C214830FFF7BCF9224800219030FFF7FD
:10225000B7F9204804219030FFF7B2F91E4941F246
:10226000941008600107C8621C4A1060002048638F
:102270008863C8630864194908310860091D08604B
:10228000174C01222146A080E08012485838FEF702
:1022900039FD042301204FF448612289002AFCD132
:1022A00022785AB1012A0CD0022A0DD0052AF4D185
:1022B000E3800A22628161802081EEE7E080608114
:1022C00005E00222E280F5E70322E28063812081BB
:1022D0006180E2E7741900202C2C01402C0400409E
:1022E000000000200000090012001B0023002C0049
:1022F00035003E0047005000580061006A0073003E
:102300007C0085008D0096009F00A800B100BA00F7
:10231000C200CB00D400DD00E600EF00F7000001B2
:10232000090112011B0123012C0135013E01470166
:102330005001580161016A0173017C0184018D0122
:1023400096019F01A801B001B901C201CB01D401DE
:10235000DC01E501EE01F7010002080211021A0298
:1023600023022B0234023D0246024E025702600253
:10237000690272027A0283028C0294029D02A60212
:10238000AF02B702C002C902D202DA02E302EC02D3
:10239000F502FD0206030F0317032003290331038F
:1023A0003A0343034B0354035D0366036E03770351
:1023B0008003880391039903A203AB03B303BC0317
:1023C000C503CD03D603DF03E703F003F8030104DD
:1023D0000A0412041B0423042C0435043D0446049F
:1023E0004E0457045F0468047104790482048A046B
:1023F00093049B04A404AC04B504BD04C604CE0439
:10240000D704DF04E804F004F90401050A05120505
:102410001B0523052C0534053C0545054D055605D2
:102420005E0567056F0577058005880591059905A7
:10243000A105AA05B205BA05C305CB05D305DC0580
:10244000E405EC05F505FD0505060E0616061E0657
:1024500027062F0637063F06480650065806600630
:102460006906710679068106890692069A06A20611
:10247000AA06B206BB06C306CB06D306DB06E306F6
:10248000EB06F406FC0604070C0714071C072407D8
:102490002C0734073C0744074C0754075D076507C2
:1024A0006D0775077D0785078D0795079C07A407AE
:1024B000AC07B407BC07C407CC07D407DC07E407A4
:1024C000EC07F407FC0703080B0813081B08230894
:1024D0002B0832083A0842084A085208590861088D
:1024E00069087108790880088808900897089F088B
:1024F000A708AF08B608BE08C608CD08D508DC088E
:10250000E408EC08F308FB0803090A091209190991
:1025100021092809300937093F0946094E0955099B
:102520005D0964096C0973097B0982098A099109AB
:102530009809A009A709AF09B609BD09C509CC09C1
:10254000D309DB09E209E909F109F809FF09060ADB
:102550000E0A150A1C0A230A2B0A320A390A400AF3
:10256000470A4F0A560A5D0A640A6B0A720A790A18
:10257000800A880A8F0A960A9D0AA40AAB0AB20A40
:10258000B90AC00AC70ACE0AD50ADC0AE30AEA0A6F
:10259000F10AF70AFE0A050B0C0B130B1A0B210BA1
:1025A000280B2E0B350B3C0B430B4A0B500B570BD8
:1025B0005E0B650B6B0B720B790B7F0B860B8D0B18
:1025C000930B9A0BA10BA70BAE0BB40BBB0BC20B5F
:1025D000C80BCF0BD50BDC0BE20BE90BEF0BF60BAB
:1025E000FC0B030C090C100C160C1D0C230C290CF5
:1025F000300C360C3C0C430C490C4F0C560C5C0C4C
:10260000620C690C6F0C750C7B0C810C880C8E0CA9
:10261000940C9A0CA00CA60CAD0CB30CB90CBF0C0E
:10262000C50CCB0CD10CD70CDD0CE30CE90CEF0C7A
:10263000F50CFB0C010D070D0D0D130D190D1F0DE4
:10264000250D2A0D300D360D3C0D420D480D4D0D5A
:10265000530D590D5F0D640D6A0D700D750D7B0DD9
:10266000810D860D8C0D920D970D9D0DA30DA80D5E
:10267000AE0DB30DB90DBE0DC40DC90DCF0DD40DEA
:10268000DA0DDF0DE40DEA0DEF0DF50DFA0DFF0D7E
:10269000050E0A0E0F0E150E1A0E1F0E240E2A0E10
:1026A0002F0E340E390E3F0E440E490E4E0E530EB1
:1026B000580E5D0E620E680E6D0E720E770E7C0E59
:1026C000810E860E8B0E900E950E990E9E0EA30E09
:1026D000A80EAD0EB20EB70EBC0EC00EC50ECA0EC1
:1026E000CF0ED30ED80EDD0EE20EE60EEB0EF00E80
:1026F000F40EF90EFE0E020F070F0B0F100F150F41
:10270000190F1E0F220F270F2B0F300F340F380F0A
:102710003D0F410F460F4A0F4E0F530F570F5B0FE0
:10272000600F640F680F6C0F710F750F790F7D0FBD
:10273000810F860F8A0F8E0F920F960F9A0F9E0FA2
:10274000A20FA60FAA0FAE0FB20FB60FBA0FBE0F91
:10275000C20FC60FCA0FCE0FD20FD50FD90FDD0F84
:10276000E10FE50FE80FEC0FF00FF40FF70FFB0F81
:10277000FF0F021006100A100D101110141018107F
:102780001B101F10231026102A102D10301034108B
:1027900037103B103E104110451048104B104F10A1
:1027A0005210551059105C105F10621065106910BE
:1027B0006C106F107210751078107B107E108210E4
:1027C000851088108B108E10901093109610991011
:1027D0009C109F10A210A510A810AA10AD10B01048
:1027E000B310B610B810BB10BE10C010C310C61086
:1027F000C810CB10CE10D010D310D510D810DA10CE
:10280000DD10DF10E210E410E710E910EC10EE101C
:10281000F010F310F510F710FA10FC10FE10001174
:1028200003110511071109110B110E1110111211CD
:102830001411161118111A111C111E112011221138
:102840002411261128112A112C112E1130113111A9
:1028500033113511371139113A113C113E11401124
:10286000411143114511461148114A114B114D11A7
:102870004E11501151115311541156115711591134
:102880005A115C115D115E116011611162116411C8
:1028900065116611671169116A116B116C116D1167
:1028A0006F1170117111721173117411751176110C
:1028B0007711781179117A117B117C117D117E11BC
:1028C0007F117F1180118111821183118311841175
:1028D00085118611861187118811881189118A1135
:1028E0008A118B118B118C118C118D118D118E1100
:1028F0008E118F118F1190119011901191119111D2
:1029000091119211921192119211931193119311AD
:102910009311931193119411941194119411941192
:10292000941194119411941194119411941194117F
:102930009411941193119311931193119311921176
:102940009211921192119111911191119011901176
:1029500090118F118F118E118E118E118D118D117D
:102960008C118C118B118A118A118911891188118E
:1029700087118711861185118511841183118211A8
:102980008111811180117F117E117D117C117B11CC
:102990007A117A11791178117711761175117311F5
:1029A0007211711170116F116E116D116C116A112C
:1029B0006911681167116611641163116211601168
:1029C0005F115E115C115B115911581157115511AE
:1029D0005411521151114F114D114C114A114911FD
:1029E000471145114411421140113F113D113B1156
:1029F0003A11381136113411321131112F112D11B4
:102A00002B11291127112511231121111F111D111E
:102A10001B11191117111511131111110F110D118E
:102A20000A110811061104110211FF10FD10FB100C
:102A3000F810F610F410F110EF10ED10EA10E81095
:102A4000E610E310E110DE10DC10D910D710D4101E
:102A5000D110CF10CC10CA10C710C410C210BF10B4
:102A6000BC10BA10B710B410B110AF10AC10A91050
:102A7000A610A310A1109E109B10981095109210F4
:102A80008F108C1089108610831080107D107A10A2
:102A90007710741071106D106A1067106410611057
:102AA0005D105A105710541050104D104A10461017
:102AB000431040103C103910361032102F102B10DC
:102AC0002810241021101D101A10161013100F10AA
:102AD0000B10081004100110FD0FF90FF50FF20F85
:102AE000EE0FEA0FE70FE30FDF0FDB0FD70FD30F68
:102AF000D00FCC0FC80FC40FC00FBC0FB80FB40F4E
:102B0000B00FAC0FA80FA40FA00F9C0F980F940F3D
:102B1000900F8C0F880F830F7F0F7B0F770F730F32
:102B20006E0F6A0F660F620F5D0F590F550F500F32
:102B30004C0F480F430F3F0F3B0F360F320F2D0F37
:102B4000290F240F200F1B0F170F120F0E0F090F45
:102B5000050F000FFB0EF70EF20EED0EE90EE40E60
:102B6000DF0EDB0ED60ED10ECC0EC80EC30EBE0E7F
:102B7000B90EB40EAF0EAB0EA60EA10E9C0E970EA4
:102B8000920E8D0E880E830E7E0E790E740E6F0ED1
:102B90006A0E650E600E5B0E560E510E4B0E460E03
:102BA000410E3C0E370E320E2C0E270E220E1D0E3D
:102BB000170E120E0D0E070E020EFD0DF70DF20D83
:102BC000ED0DE70DE20DDC0DD70DD10DCC0DC60DD1
:102BD000C10DBB0DB60DB00DAB0DA50DA00D9A0D21
:102BE000950D8F0D890D840D7E0D780D730D6D0D76
:102BF000670D610D5C0D560D500D4A0D450D3F0DD5
:102C0000390D330D2D0D280D220D1C0D160D100D37
:102C10000A0D040DFE0CF80CF20CEC0CE60CE00CAA
:102C2000DA0CD40CCE0CC80CC20CBC0CB60CB00C1C
:102C3000AA0CA30C9D0C970C910C8B0C850C7E0C94
:102C4000780C720C6C0C650C5F0C590C530C4C0C12
:102C5000460C400C390C330C2C0C260C200C190C97
:102C6000130C0C0C060C000CF90BF30BEC0BE60B25
:102C7000DF0BD90BD20BCC0BC50BBE0BB80BB10BBA
:102C8000AB0BA40B9D0B970B900B890B830B7C0B51
:102C9000750B6F0B680B610B5A0B540B4D0B460BEE
:102CA0003F0B390B320B2B0B240B1D0B160B100B90
:102CB000090B020BFB0AF40AED0AE60ADF0AD80A3E
:102CC000D10ACA0AC30ABC0AB50AAE0AA70AA00AF0
:102CD000990A920A8B0A840A7D0A760A6F0A680AA0
:102CE000600A590A520A4B0A440A3D0A350A2E0A5A
:102CF000270A200A190A110A0A0A030AFC09F40918
:102D0000ED09E609DE09D709D009C809C109BA09E0
:102D1000B209AB09A4099C0995098D0986097F09A7
:102D20007709700968096109590952094A09430973
:102D30003B0934092C0925091D0915090E09060945
:102D4000FF08F708F008E808E008D908D108C90822
:102D5000C208BA08B208AB08A3089B0894088C08FC
:102D600084087C0875086D0865085D0856084E08DB
:102D700046083E0836082F0827081F0817080F08BE
:102D80000708FF07F807F007E807E007D807D007AC
:102D9000C807C007B807B007A807A0079907910799
:102DA0008907810779077107690761075907500784
:102DB000480740073807300728072007180710077B
:102DC00008070007F806F006E706DF06D706CF0675
:102DD000C706BF06B706AE06A6069E0696068E0670
:102DE00085067D0675066D0664065C0654064C066F
:102DF00044063B0633062B0622061A0612060A066E
:102E00000106F905F105E805E005D805CF05C70578
:102E1000BF05B605AE05A6059D0595058C0584057F
:102E20007C0573056B0562055A0552054905410588
:102E30003805300527051F0516050E050605FD0496
:102E4000F504EC04E404DB04D304CA04C204B904AA
:102E5000B104A804A00497048E0486047D047504BC
:102E60006C0464045B0453044A04410439043004D0
:102E700028041F0417040E040504FD03F403EB03E8
:102E8000E303DA03D203C903C003B803AF03A60305
:102E90009E0395038C0384037B0373036A0361031E
:102EA0005803500347033E0336032D0324031C033A
:102EB00013030A030203F902F002E702DF02D6025B
:102EC000CD02C502BC02B302AA02A202990290027C
:102ED00087027F0276026D0264025C0253024A029C
:102EE00041023902300227021E0215020D020402BD
:102EF000FB01F201EA01E101D801CF01C601BE01E7
:102F0000B501AC01A3019A01920189018001770109
:102F10006E0166015D0154014B0142013A0131012C
:102F200028011F0116010D010501FC00F300EA0054
:102F3000E100D800D000C700BE00B500AC00A3007F
:102F40009B0092008900800077006E0066005D00A3
:102F500054004B0042003900310028001F001600C9
:102F60000D00040000000000000000000000000050
:102F70000000000000000000000000000000000051
:102F80000000000000000000000000000000000041
:102F90000000000000000000000000000000000031
:102FA0000000000000000000000000000000000021
:104430000000000000000000000006000F0018004F
:104440002000290032003B0044004D0055005E0072
:1044500067007000790082008A0093009C00A5002C
:10446000AE00B700BF00C800D100DA00E300EC00E6
:10447000F400FD0006010F0118012101290132019C
:104480003B0144014D0155015E0167017001790155
:1044900081018A0193019C01A501AD01B601BF0113
:1044A000C801D101D901E201EB01F401FD010502CE
:1044B0000E0217022002280231023A0243024C0285
:1044C00054025D0266026F02770280028902920244
:1044D0009A02A302AC02B502BD02C602CF02D70205
:1044E000E002E902F202FA0203030C0314031D03C3
:1044F00026032F0337034003490351035A03630381
:104500006B0374037D0385038E0397039F03A80346
:10451000B103B903C203CA03D303DC03E403ED030D
:10452000F603FE0307040F041804210429043204CF
:104530003A0443044B0454045D0465046E04760499
:104540007F04870490049804A104A904B204BB0466
:10455000C304CC04D404DD04E504ED04F604FE0435
:1045600007050F0518052005290531053A054205FF
:104570004B0553055B0564056C0575057D058505D3
:104580008E0596059F05A705AF05B805C005C805AA
:10459000D105D905E105EA05F205FA0503060B0682
:1045A00013061C0624062C0634063D0645064D0659
:1045B00055065E0666066E0676067F0687068F0639
:1045C00097069F06A806B006B806C006C806D0061D
:1045D000D806E106E906F106F90601070907110701
:1045E000190721072A0732073A0742074A075207E5
:1045F0005A0762076A0772077A0782078A079207D3
:104600009A07A207AA07B207BA07C207CA07D107C3
:10461000D907E107E907F107F907010809081108B7
:10462000180820082808300838083F0847084F08AD
:1046300057085F0866086E0876087E0885088D08AA
:1046400095089D08A408AC08B408BB08C308CB08AB
:10465000D208DA08E208E908F108F80800090809B0
:104660000F0917091E0926092D0935093C094409B6
:104670004B0953095A0962096909710978098009C6
:1046800087098F0996099D09A509AC09B409BB09D9
:10469000C209CA09D109D809E009E709EE09F609F2
:1046A000FD09040A0B0A130A1A0A210A280A2F0A0A
:1046B000370A3E0A450A4C0A530A5B0A620A690A2B
:1046C000700A770A7E0A850A8C0A930A9A0AA10A56
:1046D000A80AAF0AB60ABD0AC40ACB0AD20AD90A86
:1046E000E00AE70AEE0AF50AFC0A030B0A0B110BB3
:1046F000180B1E0B250B2C0B330B3A0B400B470BE7
:104700004E0B550B5C0B620B690B700B760B7D0B24
:10471000840B8B0B910B980B9E0BA50BAC0BB20B68
:10472000B90BBF0BC60BCD0BD30BDA0BE00BE70BB2
:10473000ED0BF40BFA0B010C070C0E0C140C1A0CFD
:10474000210C270C2E0C340C3A0C410C470C4D0C50
:10475000540C5A0C600C660C6D0C730C790C7F0CAD
:10476000860C8C0C920C980C9E0CA40CAB0CB10C0F
:10477000B70CBD0CC30CC90CCF0CD50CDB0CE10C79
:10478000E70CED0CF30CF90CFF0C050D0B0D110DE6
:10479000170D1D0D230D280D2E0D340D3A0D400D56
:1047A000460D4B0D510D570D5D0D620D680D6E0DD3
:1047B000740D790D7F0D850D8A0D900D950D9B0D56
:1047C000A10DA60DAC0DB10DB70DBC0DC20DC70DE1
:1047D000CD0DD20DD80DDD0DE30DE80DED0DF30D72
:1047E000F80DFE0D030E080E0E0E130E180E1D0E04
:1047F000230E280E2D0E320E380E3D0E420E470EA1
:104800004C0E510E570E5C0E610E660E6B0E700E46
:10481000750E7A0E7F0E840E890E8E0E930E980EF4
:104820009D0EA20EA70EAB0EB00EB50EBA0EBF0EA9
:10483000C40EC80ECD0ED20ED70EDB0EE00EE50E66
:10484000E90EEE0EF30EF70EFC0E010F050F0A0F28
:104850000E0F130F180F1C0F210F250F2A0F2E0FED
:10486000320F370F3B0F400F440F480F4D0F510FC2
:10487000560F5A0F5E0F620F670F6B0F6F0F730F9C
:10488000780F7C0F800F840F880F8C0F910F950F7E
:10489000990F9D0FA10FA50FA90FAD0FB10FB50F68
:1048A000B90FBD0FC10FC50FC90FCC0FD00FD40F5B
:1048B000D80FDC0FE00FE30FE70FEB0FEF0FF20F56
:1048C000F60FFA0FFD0F0110051008100C10101054
:1048D000131017101A101E102110251028102C105C
:1048E0002F10331036103A103D104010441047106E
:1048F0004A104E105110541058105B105E10611089
:10490000641068106B106E107110741077107A10AC
:104910007D108010841087108A108D1090109210D6
:10492000951098109B109E10A110A410A710AA100B
:10493000AC10AF10B210B510B710BA10BD10C01047
:10494000C210C510C710CA10CD10CF10D210D4108D
:10495000D710DA10DC10DF10E110E310E610E810D9
:10496000EB10ED10F010F210F410F710F910FB102E
:10497000FD10001102110411061109110B110D1186
:104980000F11111113111511171119111C111E11ED
:104990002011221124112511271129112B112D115C
:1049A0002F11311133113411361138113A113C11D4
:1049B0003D113F1141114211441146114711491156
:1049C0004B114C114E114F115111521154115511DF
:1049D000571158115A115B115C115E115F11611171
:1049E00062116311641166116711681169116B110D
:1049F0006C116D116E116F117011721173117411B0
:104A0000751176117711781179117A117B117C115A
:104A10007C117D117E117F11801181118211821113
:104A200083118411851185118611871187118811D1
:104A3000891189118A118B118B118C118C118D1197
:104A40008D118E118E118F118F118F119011901168
:104A50009011911191119111921192119211931142
:104A60009311931193119311931194119411941123
:104A7000941194119411941194119411941194110E
:104A80009411941194119411931193119311931102
:104A900093119311921192119211921191119111FE
:104AA0009111901190118F118F118F118E118E1104
:104AB0008D118D118C118C118B118B118A11891113
:104AC000891188118811871186118511851184112A
:104AD000831182118211811180117F117E117E114B
:104AE0007D117C117B117A11791178117711761172
:104AF000751174117311721171116F116E116D11A5
:104B00006C116B116A1168116711661165116311DF
:104B1000621161115F115E115D115B115A11581123
:104B20005711561154115311511150114E114C116E
:104B30004B114911481146114411431141113F11C4
:104B40003E113C113A113811371135113311311121
:104B50002F112D112C112A11281126112411221187
:104B600020111E111C111A111811161114111111F6
:104B70000F110D110B11091107110511021100116F
:104B8000FE10FC10F910F710F510F210F010EE10F6
:104B9000EB10E910E610E410E110DF10DC10DA1081
:104BA000D710D510D210D010CD10CB10C810C51012
:104BB000C310C010BD10BB10B810B510B210B010AB
:104BC000AD10AA10A710A410A1109F109C1099104E
:104BD0009610931090108D108A10871084108110F9
:104BE0007E107B107810751072106E106B106810AC
:104BF000651062105F105B105810551052104E1067
:104C00004B104810441041103E103A10371033102A
:104C100030102C102910251022101E101B101710F8
:104C2000141010100D10091005100210FE0FFA0FCD
:104C3000F70FF30FEF0FEC0FE80FE40FE00FDC0FAF
:104C4000D90FD50FD10FCD0FC90FC50FC10FBD0F94
:104C5000B90FB60FB20FAE0FAA0FA60FA20F9D0F7E
:104C6000990F950F910F8D0F890F850F810F7C0F75
:104C7000780F740F700F6C0F670F630F5F0F5B0F70
:104C8000560F520F4E0F490F450F400F3C0F380F74
:104C9000330F2F0F2A0F260F210F1D0F180F140F80
:104CA0000F0F0B0F060F010FFD0EF80EF40EEF0E97
:104CB000EA0EE60EE10EDC0ED70ED30ECE0EC90EB6
:104CC000C40EC00EBB0EB60EB10EAC0EA70EA20ED9
:104CD0009E0E990E940E8F0E8A0E850E800E7B0E00
:104CE000760E710E6C0E670E620E5D0E570E520E32
:104CF0004D0E480E430E3E0E380E330E2E0E290E6C
:104D0000240E1E0E190E140E0E0E090E040EFE0DAC
:104D1000F90DF40DEE0DE90DE40DDE0DD90DD30DF9
:104D2000CE0DC80DC30DBD0DB80DB20DAD0DA70D47
:104D3000A20D9C0D960D910D8B0D860D800D7A0D9B
:104D4000750D6F0D690D630D5E0D580D520D4C0DF7
:104D5000470D410D3B0D350D2F0D290D240D1E0D59
:104D6000180D120D0C0D060D000DFA0CF40CEE0CC6
:104D7000E80CE20CDC0CD60CD00CCA0CC40CBE0C3B
:104D8000B80CB20CAC0CA50C9F0C990C930C8D0CB0
:104D9000870C800C7A0C740C6E0C670C610C5B0C2D
:104DA000550C4E0C480C420C3B0C350C2F0C280CAF
:104DB000220C1B0C150C0F0C080C020CFB0BF50B3A
:104DC000EE0BE80BE10BDB0BD40BCE0BC70BC10BCF
:104DD000BA0BB30BAD0BA60BA00B990B920B8C0B64
:104DE000850B7E0B780B710B6A0B630B5D0B560BFF
:104DF0004F0B480B420B3B0B340B2D0B260B200BA0
:104E0000190B120B0B0B040BFD0AF60AEF0AE80A4A
:104E1000E20ADB0AD40ACD0AC60ABF0AB80AB10AF6
:104E2000AA0AA30A9C0A950A8D0A860A7F0A780AAA
:104E3000710A6A0A630A5C0A550A4D0A460A3F0A61
:104E4000380A310A290A220A1B0A140A0D0A050A1D
:104E5000FE09F709EF09E809E109DA09D209CB09E6
:104E6000C409BC09B509AD09A6099F0997099009AC
:104E7000880981097A0972096B0963095C09540977
:104E80004D0945093E0936092F0927092009180946
:104E9000100909090109FA08F208EA08E308DB0821
:104EA000D408CC08C408BD08B508AD08A6089E08FB
:104EB00096088E0887087F0877086F0868086008DA
:104EC00058085008490841083908310829082208BB
:104ED0001A0812080A080208FA07F207EA07E307A5
:104EE000DB07D307CB07C307BB07B307AB07A30792
:104EF0009B0793078B0783077B0773076B07630782
:104F00005B0753074B0743073B0733072B07230771
:104F10001B0713070B070207FA06F206EA06E2066A
:104F2000DA06D206CA06C106B906B106A906A10666
:104F3000990690068806800678066F0667065F0663
:104F400057064F0646063E0636062D0625061D0662
:104F500015060C060406FC05F305EB05E305DA056A
:104F6000D205CA05C105B905B105A805A005980572
:104F70008F0587057E0576056E0565055D0554057B
:104F80004C0543053B0533052A0522051905110586
:104F900008050005F704EF04E604DE04D504CD049B
:104FA000C404BC04B304AB04A2049A0491048904AD
:104FB000800478046F0467045E0455044D044404BF
:104FC0003C0433042B0422041904110408040004D3
:104FD000F703EE03E603DD03D503CC03C303BB03F2
:104FE000B203A903A10398038F0387037E0375030C
:104FF0006D0364035B0353034A0341033903300326
:1050000027031F0316030D030403FC02F302EA0245
:10501000E202D902D002C702BF02B602AD02A50267
:105020009C0293028A0282027902700267025F0286
:1050300056024D0244023B0233022A0221021802A8
:1050400010020702FE01F501EC01E401DB01D201CF
:10505000C901C101B801AF01A6019D0195018C01F3
:1050600083017A0171016901600157014E01450117
:105070003C0134012B012201190110010801FF003C
:10508000F600ED00E400DB00D300CA00C100B80068
:10509000AF00A6009E0095008C0083007A0071008E
:1050A0006900600057004E0045003C0034002B00B2
:1050B000220019001000070000000000000000009E
:1050C00000000000000000000000000000000000E0
:1050D00000000000000000000000000000000000D0
:1050E00000000000000000000000000000000000C0
:1050F00000000000000000000000000000000000B0
:1054E00000000000390F350F300F2C0F270F230F4E
:1054F0001E0F1A0F150F110F0C0F080F030FFE0EC2
:10550000FA0EF50EF00EEC0EE70EE20EDE0ED90EE0
:10551000D40ED00ECB0EC60EC10EBC0EB80EB30EFE
:10552000AE0EA90EA40E9F0E9A0E950E900E8B0E27
:10553000860E820E7D0E770E720E6D0E680E630E55
:105540005E0E590E540E4F0E4A0E450E3F0E3A0E89
:10555000350E300E2B0E250E200E1B0E160E100EC5
:105560000B0E060E000EFB0DF60DF00DEB0DE50D0E
:10557000E00DDB0DD50DD00DCA0DC50DBF0DBA0D5B
:10558000B40DAF0DA90DA30D9E0D980D930D8D0DAE
:10559000870D820D7C0D760D710D6B0D650D600D07
:1055A0005A0D540D4E0D490D430D3D0D370D310D66
:1055B0002B0D260D200D1A0D140D0E0D080D020DCC
:1055C000FC0CF60CF00CEA0CE40CDE0CD80CD20C43
:1055D000CC0CC60CC00CBA0CB40CAE0CA80CA10CB4
:1055E0009B0C950C8F0C890C820C7C0C760C700C2F
:1055F0006A0C630C5D0C570C500C4A0C440C3D0CAF
:10560000370C310C2A0C240C1E0C170C110C0A0C34
:10561000040CFD0BF70BF00BEA0BE30BDD0BD60BC9
:10562000D00BC90BC30BBC0BB60BAF0BA80BA20B5B
:105630009B0B940B8E0B870B800B7A0B730B6C0BF5
:10564000660B5F0B580B510B4B0B440B3D0B360B92
:105650002F0B290B220B1B0B140B0D0B060BFF0A38
:10566000F90AF20AEB0AE40ADD0AD60ACF0AC80AE6
:10567000C10ABA0AB30AAC0AA50A9E0A970A900A96
:10568000890A820A7B0A730A6C0A650A5E0A570A4B
:10569000500A490A410A3A0A330A2C0A250A1D0A05
:1056A000160A0F0A080A000AF909F209EB09E309C8
:1056B000DC09D509CD09C609BF09B709B009A9098F
:1056C000A1099A0992098B0983097C0975096D0959
:1056D00066095E0957094F09480940093909310926
:1056E0002A0922091B0913090B090409FC08F508FA
:1056F000ED08E508DE08D608CE08C708BF08B708D9
:10570000B008A808A00899089108890882087A08B2
:1057100072086A0863085B0853084B0843083C0892
:1057200034082C0824081C0814080D080508FD0777
:10573000F507ED07E507DD07D507CD07C607BE0767
:10574000B607AE07A6079E0796078E0786077E0751
:1057500076076E0766075E0756074E0746073E0741
:1057600036072E0726071D0715070D070507FD0637
:10577000F506ED06E506DD06D406CC06C406BC0635
:10578000B406AC06A3069B0693068B0683067A0630
:1057900072066A0662065A0651064906410638062E
:1057A00030062806200617060F060706FE05F60532
:1057B000EE05E605DD05D505CD05C405BC05B3053B
:1057C000AB05A3059A0592058A0581057905700543
:1057D0006805600557054F0546053E0535052D054D
:1057E00025051C0514050B050305FA04F204E9045C
:1057F000E104D804D004C704BF04B604AE04A50471
:105800009D0494048C0483047B0472046904610481
:105810005804500447043F0436042D0425041C0496
:1058200014040B040204FA03F103E903E003D703B1
:10583000CF03C603BD03B503AC03A4039B039203CC
:105840008A0381037803700367035E0356034D03E5
:1058500044033C0333032A03210319031003070302
:10586000FF02F602ED02E502DC02D302CA02C20226
:10587000B902B002A7029F0296028D0284027C0246
:1058800073026A0261025902500247023E02360266
:105890002D0224021B0213020A020102F801EF0189
:1058A000E701DE01D501CC01C301BB01B201A901B1
:1058B000A00197018F0186017D0174016B016301D5
:1058C0005A01510148013F0137012E0125011C01F8
:1058D00013010A010201F900F000E700DE00D60022
:1058E000CD00C400BB00B200A900A10098008F0049
:1058F00086007D0074006C0063005A00510048006F
:105900003F0037002E0025001C0013000A00010094
:105910000000000000000000000000000000000087
:105920000000000000000000000000000000000077
:105930000000000000000000000000000000000067
:105940000000000000000000000000000000000057
:106580000000000000000000000000000000030008
:106590000C0015001D0026002F00380041004A00A5
:1065A00052005B0064006D0076007F008800900060
:1065B0009900A200AB00B400BC00C500CE00D7001B
:1065C000E000E900F100FA0003010C0115011E01D1
:1065D00026012F01380141014A0152015B0164018A
:1065E0006D0176017F01870190019901A201AB0144
:1065F000B301BC01C501CE01D701DF01E801F10102
:10660000FA0102020B0214021D0226022E023702B8
:106610004002490251025A0263026C0274027D0276
:1066200086028F029702A002A902B202BA02C30236
:10663000CC02D502DD02E602EF02F70200030903F5
:1066400012031A0323032C0334033D0346034E03B2
:1066500057036003680371037A0382038B03940377
:106660009C03A503AE03B603BF03C803D003D9033D
:10667000E103EA03F303FB0304040C0415041E0402
:1066800026042F0437044004490451045A046204C8
:106690006B0473047C0485048D0496049E04A70493
:1066A000AF04B804C004C904D104DA04E204EB0462
:1066B000F304FC0404050D0515051D0526052E052E
:1066C00037053F05480550055905610569057205FF
:1066D0007A0583058B0593059C05A405AC05B505D6
:1066E000BD05C605CE05D605DF05E705EF05F805AE
:1066F00000060806100619062106290632063A0683
:1067000042064A0653065B0663066B0674067C0661
:1067100084068C0694069D06A506AD06B506BD0644
:10672000C506CE06D606DE06E606EE06F606FE062A
:1067300007070F0717071F0727072F0737073F0709
:1067400047074F0757075F0767076F0777077F07F9
:1067500087078F0797079F07A707AF07B707BF07E9
:10676000C707CF07D707DF07E707EE07F607FE07DC
:1067700006080E0816081E0825082D0835083D08CD
:1067800045084C0854085C0864086C0873087B08CA
:1067900083088B0892089A08A208A908B108B908CA
:1067A000C008C808D008D708DF08E708EE08F608D0
:1067B000FD0805090D0914091C0923092B093209D3
:1067C0003A0941094909500958095F0967096E09E1
:1067D00076097D0985098C0994099B09A209AA09F2
:1067E000B109B809C009C709CF09D609DD09E5090A
:1067F000EC09F309FA09020A090A100A170A1F0A22
:10680000260A2D0A340A3B0A430A4A0A510A580A40
:106810005F0A660A6E0A750A7C0A830A8A0A910A66
:10682000980A9F0AA60AAD0AB40ABB0AC20AC90A94
:10683000D00AD70ADE0AE50AEC0AF30AFA0A010BC3
:10684000080B0E0B150B1C0B230B2A0B310B370BF4
:106850003E0B450B4C0B530B590B600B670B6E0B30
:10686000740B7B0B820B880B8F0B960B9C0BA30B73
:10687000A90BB00BB70BBD0BC40BCA0BD10BD80BBC
:10688000DE0BE50BEB0BF20BF80BFE0B050C0B0C08
:10689000120C180C1F0C250C2B0C320C380C3E0C57
:1068A000450C4B0C510C580C5E0C640C6B0C710CB1
:1068B000770C7D0C840C8A0C900C960C9C0CA20C12
:1068C000A90CAF0CB50CBB0CC10CC70CCD0CD30C78
:1068D000D90CDF0CE50CEB0CF10CF70CFD0C030DE7
:1068E000090D0F0D150D1B0D210D270D2C0D320D52
:1068F000380D3E0D440D490D4F0D550D5B0D610DCD
:10690000660D6C0D720D770D7D0D830D880D8E0D4E
:10691000940D990D9F0DA40DAA0DAF0DB50DBB0DD6
:10692000C00DC60DCB0DD10DD60DDB0DE10DE60D65
:10693000EC0DF10DF60DFC0D010E070E0C0E110EF7
:10694000160E1C0E210E260E2B0E310E360E3B0E91
:10695000400E450E4B0E500E550E5A0E5F0E640E35
:10696000690E6E0E730E780E7D0E820E870E8C0EE3
:10697000910E960E9B0EA00EA50EAA0EAF0EB40E93
:10698000B80EBD0EC20EC70ECC0ED00ED50EDA0E4E
:10699000DF0EE30EE80EED0EF10EF60EFB0EFF0E0F
:1069A000040F080F0D0F110F160F1B0F1F0F240FD1
:1069B000280F2D0F310F350F3A0F3E0F430F470FA2
:1069C0004B0F500F540F580F5D0F610F650F6A0F7B
:1069D0006E0F720F760F7A0F7F0F830F870F8B0F5B
:1069E0008F0F930F970F9B0F9F0FA40FA80FAC0F44
:1069F000B00FB40FB80FBB0FBF0FC30FC70FCB0F34
:106A0000CF0FD30FD70FDB0FDE0FE20FE60FEA0F2A
:106A1000ED0FF10FF50FF90FFC0F00100410071028
:106A20000B100E101210161019101D10201024102B
:106A300027102B102E103210351038103C103F103C
:106A40004310461049104D105010531056105A1054
:106A50005D106010631067106A106D107010731075
:106A6000761079107C107F108310861089108C109E
:106A70008F109110941097109A109D10A010A310D1
:106A8000A610A910AB10AE10B110B410B610B9100A
:106A9000BC10BF10C110C410C710C910CC10CE104C
:106AA000D110D410D610D910DB10DE10E010E31096
:106AB000E510E810EA10EC10EF10F110F310F610EA
:106AC000F810FA10FD10FF10011103110611081142
:106AD0000A110C110E1110111311151117111911A2
:106AE0001B111D111F11211123112511271129110E
:106AF0002B112C112E113011321134113611371186
:106B000039113B113D113E11401142114411451103
:106B1000471148114A114C114D114F11501152118A
:106B2000531155115611581159115B115C115D111A
:106B30005F116011611163116411651167116811B2
:106B400069116A116B116D116E116F117011711154
:106B50007211731174117511761177117811791101
:106B60007A117B117C117D117E117F1180118011B2
:106B7000811182118311841184118511861187116D
:106B800087118811881189118A118A118B118B1133
:106B90008C118C118D118D118E118E118F118F1101
:106BA00090119011901191119111911192119211D6
:106BB00092119211931193119311931193119411B6
:106BC000941194119411941194119411941194119D
:106BD000941194119411941194119411941193118E
:106BE0009311931193119311921192119211921189
:106BF0009111911191119011901190118F118F118C
:106C00008E118E118D118D118C118C118B118B1198
:106C10008A118A11891188118811871186118611AC
:106C200085118411841183118211811180118011C9
:106C30007F117E117D117C117B117A1179117811F0
:106C40007711761175117411731172117111701120
:106C50006F116E116C116B116A1169116811661157
:106C6000651164116311611160115F115D115C1197
:106C70005A115911571156115511531152115011E2
:106C80004F114D114B114A11481147114511431134
:106C9000421140113E113C113B1139113711351190
:106CA0003411321130112E112C112A1128112611F4
:106CB0002411231121111F111D111A111811161160
:106CC0001411121110110E110C110A1107110511D6
:106CD00003110111FF10FC10FA10F810F510F31059
:106CE000F110EE10EC10EA10E710E510E210E010E1
:106CF000DD10DB10D810D610D310D110CE10CB1071
:106D0000C910C610C410C110BE10BB10B910B61007
:106D1000B310B110AE10AB10A810A510A210A010A7
:106D20009D109A109710941091108E108B1088104F
:106D3000851082107F107C107910761073106F1000
:106D40006C1069106610631060105C1059105610BA
:106D500053104F104C104910451042103F103B107B
:106D60003810341031102E102A1027102310201044
:106D70001C101910151011100E100A100710031016
:106D8000FF0FFC0FF80FF40FF10FED0FE90FE50FF8
:106D9000E10FDE0FDA0FD60FD20FCE0FCA0FC70FDB
:106DA000C30FBF0FBB0FB70FB30FAF0FAB0FA70FC3
:106DB000A30F9F0F9B0F970F930F8E0F8A0F860FB6
:106DC000820F7E0F7A0F760F710F6D0F690F650FAF
:106DD000600F5C0F580F530F4F0F4B0F460F420FB2
:106DE0003E0F390F0000000000000000000000000E
:106DF0000000000000000000000000000000000093
:106E00000000000000000000000000000000000082
:106E10000000000000000000000000000000000072
:106E20000000000000000000000000000000000062
:107A60000000000004000D0016001F002800310077
:107A7000390042004B0054005D0066006E00770044
:107A80008000890092009B00A300AC00B500BE00FE
:107A9000C700D000D800E100EA00F300FC000501B7
:107AA0000D0116011F01280131013A0142014B016C
:107AB00054015D0166016E01770180018901920127
:107AC0009A01A301AC01B501BE01C601CF01D801E5
:107AD000E101EA01F201FB0104020D0215021E029E
:107AE00027023002390241024A0253025C02640258
:107AF0006D0276027F02870290029902A202AA0218
:107B0000B302BC02C502CD02D602DF02E702F002D8
:107B1000F90202030A0313031C0324032D03360393
:107B20003E0347035003580361036A0373037B0357
:107B300084038C0395039E03A603AF03B803C0031D
:107B4000C903D203DA03E303EB03F403FD030504E3
:107B50000E0417041F0428043004390441044A04A5
:107B600053045B0464046C0475047D0486048E0471
:107B70009704A004A804B104B904C204CA04D3043D
:107B8000DB04E404EC04F504FD0406050E0516050B
:107B90001F052705300538054105490552055A05D9
:107BA00062056B0573057C0584058C0595059D05AF
:107BB000A605AE05B605BF05C705CF05D805E00586
:107BC000E805F105F90501060A0612061A0622065D
:107BD0002B0633063B0644064C0654065C06640638
:107BE0006D0675067D0685068E0696069E06A60619
:107BF000AE06B706BF06C706CF06D706DF06E706FE
:107C0000F006F806000708071007180720072807DE
:107C100030073807400748075007590761076907C9
:107C2000710779078107890791079907A007A807B6
:107C3000B007B807C007C807D007D807E007E807AC
:107C4000F007F807FF0707080F0817081F0827089D
:107C50002F0836083E0846084E0856085D08650895
:107C60006D0875087C0884088C0894089B08A30894
:107C7000AB08B208BA08C208C908D108D908E00898
:107C8000E808F008F708FF0806090E0915091D099C
:107C900025092C0934093B0943094A0952095909A4
:107CA00061096809700977097F0986098D099509B5
:107CB0009C09A409AB09B209BA09C109C809D009CC
:107CC000D709DE09E609ED09F409FC09030A0A0AE5
:107CD000110A190A200A270A2E0A350A3D0A440AFF
:107CE0004B0A520A590A600A680A6F0A760A7D0A24
:107CF000840A8B0A920A990AA00AA70AAE0AB50A50
:107D0000BC0AC30ACA0AD10AD80ADF0AE60AED0A7F
:107D1000F40AFB0A020B090B100B160B1D0B240BAC
:107D20002B0B320B390B3F0B460B4D0B540B5A0BE5
:107D3000610B680B6F0B750B7C0B830B890B900B26
:107D4000970B9D0BA40BAB0BB10BB80BBE0BC50B6C
:107D5000CC0BD20BD90BDF0BE60BEC0BF30BF90BB7
:107D6000000C060C0C0C130C190C200C260C2C0C03
:107D7000330C390C400C460C4C0C530C590C5F0C5A
:107D8000650C6C0C720C780C7E0C850C8B0C910CB9
:107D9000970C9D0CA30CAA0CB00CB60CBC0CC20C1E
:107DA000C80CCE0CD40CDA0CE00CE60CEC0CF20C8B
:107DB000F80CFE0C040D0A0D100D160D1C0D220DF5
:107DC000280D2D0D330D390D3F0D450D4A0D500D6C
:107DD000560D5C0D610D670D6D0D730D780D7E0DEB
:107DE000840D890D8F0D950D9A0DA00DA50DAB0D70
:107DF000B00DB60DBB0DC10DC60DCC0DD10DD70DFF
:107E0000DC0DE20DE70DED0DF20DF70DFD0D020E8F
:107E1000070E0D0E120E170E1D0E220E270E2C0E23
:107E2000320E370E3C0E410E460E4B0E510E560EC4
:107E30005B0E600E650E6A0E6F0E740E790E7E0E6E
:107E4000830E880E8D0E920E970E9C0EA10EA60E1E
:107E5000AB0EAF0EB40EB90EBE0EC30EC80ECC0ED6
:107E6000D10ED60EDB0EDF0EE40EE90EED0EF20E95
:107E7000F70EFB0E000F050F090F0E0F120F170F55
:107E80001B0F200F240F290F2D0F320F360F3B0F22
:107E90003F0F430F480F4C0F500F550F590F5D0FF9
:107EA000620F660F6A0F6E0F730F770F7B0F7F0FD6
:107EB000830F880F8C0F900F940F980F9C0FA00FBB
:107EC000A40FA80FAC0FB00FB40FB80FBC0FC00FAA
:107ED000C40FC80FCC0FD00FD30FD70FDB0FDF0F9E
:107EE000E30FE70FEA0FEE0FF20FF50FF90FFD0F9B
:107EF0000110041008100B100F10131016101A1098
:107F00001D102110241028102B102F1032103610A5
:107F100039103C104010431046104A104D105010BC
:107F2000541057105A105D106110641067106A10D9
:107F30006D107110741077107A107D1080108310FE
:107F4000861089108C108F109210951098109B102D
:107F50009E10A110A310A610A910AC10AF10B11064
:107F6000B410B710BA10BC10BF10C210C410C710A4
:107F7000CA10CC10CF10D110D410D710D910DC10EB
:107F8000DE10E110E310E610E810EA10ED10EF103B
:107F9000F110F410F610F810FB10FD10FF10021194
:107FA0000411061108110A110D110F1111111311ED
:107FB0001511171119111B111D111F112111231159
:107FC0002511271129112B112D112F1131113211CA
:107FD0003411361138113A113B113D113F11401146
:107FE000421144114511471149114A114C114D11CB
:107FF0004F11511152115411551157115811591156
:108000005B115C115E115F116011621163116411EB
:1080100066116711681169116A116C116D116E1189
:108020006F11701171117211731175117611771131
:10803000781179117A117A117B117C117D117E11E1
:108040007F11801181118111821183118411851199
:1080500085118611871187118811891189118A115B
:108060008A118B118C118C118D118D118E118E1125
:108070008E118F118F1190119011901191119111FA
:1080800091119211921192119211931193119311D6
:1080900093119311941194119411941194119411BA
:1080A00094119411941194119411941194119411A8
:1080B00094119311931193119311931193119211A0
:1080C000921192119211911191119111901190119F
:1080D00090118F118F118E118E118D118D118C11A8
:1080E0008C118B118B118A118A11891188118811B9
:1080F00087118611861185118411831183118211D4
:10810000811180117F117F117E117D117C117B11F6
:108110007A11791178117711761175117411731123
:108120007211711170116F116D116C116B116A1157
:108130006911671166116511641162116111601195
:108140005E115D115C115A115911571156115411DC
:108150005311511150114E114D114B114A1148112B
:10816000461145114311411140113E113C113A1184
:108170003911371135113311311130112E112C11E4
:108180002A11281126112411221120111E111C114F
:108190001A11181116111411121110110E110B11C0
:1081A00009110711051103110011FE10FC10FA103E
:1081B000F710F510F310F010EE10EC10E910E710C6
:1081C000E410E210DF10DD10DA10D810D510D31053
:1081D000D010CE10CB10C810C610C310C010BE10E7
:1081E000BB10B810B610B310B010AD10AA10A81084
:1081F000A510A2109F109C1099109610931090102B
:108200008E108B108810851082107E107B107810D5
:10821000751072106F106C106910651062105F108D
:108220005C105910551052104F104B10481045104B
:1082300041103E103B103710341030102D102A1012
:10824000261023101F101B101810141011100D10E1
:108250000A1006100210FF0FFB0FF70FF40FF00FBC
:10826000EC0FE80FE50FE10FDD0FD90FD50FD20F9F
:10827000CE0FCA0FC60FC20FBE0FBA0FB60FB20F86
:10828000AE0FAA0FA60FA20F9E0F9A0F960F920F76
:108290008E0F8A0F860F810F7D0F790F750F710F6B
:1082A0006C0F680F640F600F5B0F570F530F4E0F6B
:1082B0004A0F460F410F3D0F380F340F300F2B0F71
:1082C000270F220F1E0F190F150F100F0B0F070F7F
:1082D000020FFE0EF90EF40EF00EEB0EE60EE20E9D
:1082E000DD0ED80ED30ECF0ECA0EC50EC00EBC0EBC
:1082F000B70EB20EAD0EA80EA30E9E0E990E950EE1
:10830000900E8B0E860E810E7C0E770E720E6D0E09
:10831000680E620E5D0E580E530E4E0E490E440E40
:108320003F0E390E340E2F0E2A0E240E1F0E1A0E7B
:10833000150E0F0E0A0E050EFF0DFA0DF50DEF0DC1
:10834000EA0DE40DDF0DDA0DD40DCF0DC90DC40D0E
:10835000BE0DB90DB30DAE0DA80DA30D9D0D970D5E
:10836000920D8C0D860D810D7B0D750D700D6A0DB6
:10837000640D5F0D590D530D4D0D480D420D3C0D13
:10838000360D300D2A0D250D1F0D190D130D0D0D78
:10839000070D010DFB0CF50CEF0CE90CE30CDD0CEB
:1083A000D70CD10CCB0CC50CBF0CB90CB30CAD0C5D
:1083B000A60CA00C9A0C940C8E0C880C810C7B0CD7
:1083C000750C6F0C690C620C5C0C560C4F0C490C54
:1083D000430C3C0C360C300C290C230C1D0C160CD9
:1083E000100C090C030CFC0BF60BEF0BE90BE20B6A
:1083F000DC0BD50BCF0BC80BC20BBB0BB40BAE0BFE
:10840000A70BA10B9A0B930B8D0B860B7F0B790B94
:10841000720B6B0B650B5E0B570B500B4A0B430B30
:108420003C0B350B2E0B280B210B1A0B130B0C0BD3
:10843000050BFE0AF70AF10AEA0AE30ADC0AD50A82
:10844000CE0AC70AC00AB90AB20AAB0AA40A9D0A30
:10845000960A8F0A880A800A790A720A6B0A640AE5
:108460005D0A560A4F0A470A400A390A320A2B0A9D
:10847000230A1C0A150A0E0A060AFF09F809F1095F
:10848000E909E209DB09D309CC09C509BD09B60927
:10849000AF09A709A009980991098A0982097B09EE
:1084A00073096C0964095D0955094E0946093F09BC
:1084B0003709300928092109190912090A0903098C
:1084C000FB08F308EC08E408DC08D508CD08C6086A
:1084D000BE08B608AF08A7089F0897089008880844
:1084E00080087908710869086108590852084A0823
:1084F00042083A0832082B0823081B0813080B0807
:108500000308FC07F407EC07E407DC07D407CC07F3
:10851000C407BC07B407AC07A4079C0795078D07E1
:1085200085077D0775076D0765075D0754074C07CD
:1085300044073C0734072C0724071C0714070C07C3
:108540000407FC06F406EB06E306DB06D306CB06BF
:10855000C306BB06B206AA06A2069A0692068906BA
:1085600081067906710669066006580650064806B7
:108570003F0637062F0627061E0616060E060506B8
:10858000FD05F505EC05E405DC05D305CB05C305C4
:10859000BA05B205AA05A1059905910588058005CA
:1085A00077056F0567055E0556054D0545053C05D4
:1085B00034052C0523051B0512050A050105F904E0
:1085C000F004E804DF04D704CE04C604BD04B504F7
:1085D000AC04A4049B0493048A0482047904710407
:1085E00068045F0457044E0446043D0435042C041B
:1085F00023041B0412040A040104F803F003E70334
:10860000DF03D603CD03C503BC03B303AB03A2034F
:10861000990391038803800377036E0366035D0368
:1086200054034B0343033A03310329032003170385
:108630000F030603FD02F502EC02E302DA02D202A6
:10864000C902C002B702AF02A6029D0294028C02C8
:1086500083027A0272026902600257024E024602E7
:108660003D0234022B0223021A0211020802000208
:10867000F701EE01E501DC01D401CB01C201B90132
:10868000B001A8019F0196018D0184017C01730155
:108690006A0161015801500147013E0135012C0179
:1086A00023011B01120109010001F700EF00E600A0
:1086B000DD00D400CB00C200BA00B100A8009F00CA
:1086C00096008D0085007C0073006A0061005800F0
:1086D000500047003E0035002C0023001B00120014
:1086E00009000000390F3E0F420F460F4B0F4F0F8E
:1086F000530F580F5C0F600F650F690F6D0F710FEF
:10870000760F7A0F7E0F820F860F8A0F8E0F930FD0
:10871000970F9B0F9F0FA30FA70FAB0FAF0FB30FB9
:10872000B70FBB0FBF0FC30FC70FCA0FCE0FD20FAC
:10873000D60FDA0FDE0FE10FE50FE90FED0FF10FA6
:10874000F40FF80FFC0FFF0F031007100A100E10A4
:108750001110151019101C102010231027102A10AA
:108760002E103110341038103B103F1042104510BD
:1087700049104C104F105310561059105C106010D7
:108780006310661069106C106F10731076107910FA
:108790007C107F108210851088108B108E10911025
:1087A000941097109A109D10A010A210A510A81058
:1087B000AB10AE10B110B310B610B910BB10BE1094
:1087C000C110C410C610C910CB10CE10D110D310D8
:1087D000D610D810DB10DD10E010E210E510E71025
:1087E000EA10EC10EE10F110F310F510F810FA107A
:1087F000FC10FF1001110311051107110A110C11D2
:108800000E11101112111411161118111A111D1137
:108810001F11211123112411261128112A112C11A5
:108820002E113011321134113511371139113B111C
:108830003C113E114011421143114511471148119D
:108840004A114B114D114F11501152115311551125
:108850005611571159115A115C115D115F116011B8
:1088600061116311641165116611681169116A1152
:108870006B116C116E116F117011711172117311F6
:108880007411751176117711781179117A117B11A4
:108890007C117D117E117F11801180118111821157
:1088A0008311841184118511861186118711881115
:1088B000881189118A118A118B118B118C118C11DD
:1088C0008D118D118E118E118F118F1190119011AC
:1088D0009011911191119111921192119211921185
:1088E0009311931193119311931194119411941165
:1088F0009411941194119411941194119411941150
:108900009411941194119411941193119311931142
:10891000931193119211921192119211911191113F
:1089200091119011901190118F118F118E118E1144
:108930008D118D118C118C118B118B118A118A1153
:108940008911881188118711871186118511841169
:108950008411831182118111801180117F117E1188
:108960007D117C117B117A117911781177117611B3
:108970007511741173117211711170116F116E11E3
:108980006D116B116A11691168116711651164111C
:108990006311611160115F115D115C115B1159115F
:1089A0005811561155115311521150114F114D11AB
:1089B0004C114A11481147114511441142114011FF
:1089C0003E113D113B11391137113611341132115D
:1089D00030112E112C112B112911271125112311C2
:1089E00021111F111D111B1119111711151113112F
:1089F00010110E110C110A110811061103110111A9
:108A0000FF10FD10FA10F810F610F310F110EF102F
:108A1000EC10EA10E810E510E310E010DE10DB10B7
:108A2000D910D610D410D110CE10CC10C910C71048
:108A3000C410C110BF10BC10B910B610B410B110E2
:108A4000AE10AB10A910A610A310A0109D109A1084
:108A50009710941091108F108C108910861083102D
:108A60007F107C1079107610731070106D106A10E2
:108A70006710631060105D105A105610531050109C
:108A80004D104910461043103F103C10381035105F
:108A900032102E102B102710241020101D1019102A
:108AA000161012100E100B10071004100010FC0FFF
:108AB000F90FF50FF10FED0FEA0FE60FE20FDE0FE2
:108AC000DB0FD70FD30FCF0FCB0FC70FC30FBF0FC6
:108AD000BB0FB80FB40FB00FAC0FA80FA40F9F0FB0
:108AE0009B0F970F930F8F0F8B0F870F830F7F0FA6
:108AF0007A0F760F720F6E0F6A0F650F610F5D0FA1
:108B0000580F540F500F4B0F470F430F3E0F3A0FA4
:108B1000350F310F2D0F280F240F1F0F1B0F160FAE
:108B2000110F0D0F080F040FFF0EFB0EF60EF10EC6
:108B3000ED0EE80EE30EDF0EDA0ED50ED00ECC0EE3
:108B4000C70EC20EBD0EB80EB40EAF0EAA0EA50E05
:108B5000A00E9B0E960E910E8C0E870E820E7D0E31
:108B6000780E730E6E0E690E640E5F0E5A0E550E61
:108B7000500E4B0E450E400E3B0E360E310E2B0E98
:108B8000260E210E1C0E160E110E0C0E070E010ED7
:108B9000FC0DF60DF10DEC0DE60DE10DDB0DD60D26
